{
  "_format": "hh-sol-artifact-1",
  "contractName": "ArtMarketplace",
  "sourceName": "contracts/ArtMarketplace.sol",
  "abi": [
    {
      "inputs": [
        {
          "internalType": "contract ArtToken",
          "name": "_token",
          "type": "address"
        }
      ],
      "stateMutability": "nonpayable",
      "type": "constructor"
    },
    {
      "anonymous": false,
      "inputs": [
        {
          "indexed": true,
          "internalType": "uint256",
          "name": "tokenId",
          "type": "uint256"
        },
        {
          "indexed": true,
          "internalType": "address",
          "name": "bidder",
          "type": "address"
        },
        {
          "indexed": false,
          "internalType": "uint256",
          "name": "amount",
          "type": "uint256"
        }
      ],
      "name": "OfferAccepted",
      "type": "event"
    },
    {
      "anonymous": false,
      "inputs": [
        {
          "indexed": true,
          "internalType": "uint256",
          "name": "tokenId",
          "type": "uint256"
        },
        {
          "indexed": true,
          "internalType": "address",
          "name": "bidder",
          "type": "address"
        },
        {
          "indexed": false,
          "internalType": "uint256",
          "name": "amount",
          "type": "uint256"
        }
      ],
      "name": "OfferMade",
      "type": "event"
    },
    {
      "anonymous": false,
      "inputs": [
        {
          "indexed": true,
          "internalType": "uint256",
          "name": "tokenId",
          "type": "uint256"
        },
        {
          "indexed": true,
          "internalType": "address",
          "name": "bidder",
          "type": "address"
        },
        {
          "indexed": false,
          "internalType": "uint256",
          "name": "amount",
          "type": "uint256"
        }
      ],
      "name": "OfferWithdrawn",
      "type": "event"
    },
    {
      "anonymous": false,
      "inputs": [
        {
          "indexed": false,
          "internalType": "uint256",
          "name": "id",
          "type": "uint256"
        },
        {
          "indexed": false,
          "internalType": "uint256",
          "name": "tokenId",
          "type": "uint256"
        },
        {
          "indexed": false,
          "internalType": "uint256",
          "name": "price",
          "type": "uint256"
        }
      ],
      "name": "itemAddedForSale",
      "type": "event"
    },
    {
      "anonymous": false,
      "inputs": [
        {
          "indexed": false,
          "internalType": "uint256",
          "name": "id",
          "type": "uint256"
        },
        {
          "indexed": false,
          "internalType": "address",
          "name": "buyer",
          "type": "address"
        },
        {
          "indexed": false,
          "internalType": "uint256",
          "name": "price",
          "type": "uint256"
        }
      ],
      "name": "itemSold",
      "type": "event"
    },
    {
      "inputs": [
        {
          "internalType": "uint256",
          "name": "tokenId",
          "type": "uint256"
        },
        {
          "internalType": "uint256",
          "name": "offerIndex",
          "type": "uint256"
        }
      ],
      "name": "acceptOffer",
      "outputs": [],
      "stateMutability": "nonpayable",
      "type": "function"
    },
    {
      "inputs": [
        {
          "internalType": "uint256",
          "name": "",
          "type": "uint256"
        }
      ],
      "name": "activeItems",
      "outputs": [
        {
          "internalType": "bool",
          "name": "",
          "type": "bool"
        }
      ],
      "stateMutability": "view",
      "type": "function"
    },
    {
      "inputs": [
        {
          "internalType": "uint256",
          "name": "id",
          "type": "uint256"
        }
      ],
      "name": "buyItem",
      "outputs": [],
      "stateMutability": "payable",
      "type": "function"
    },
    {
      "inputs": [
        {
          "internalType": "uint256",
          "name": "",
          "type": "uint256"
        }
      ],
      "name": "itemsForSale",
      "outputs": [
        {
          "internalType": "uint256",
          "name": "id",
          "type": "uint256"
        },
        {
          "internalType": "uint256",
          "name": "tokenId",
          "type": "uint256"
        },
        {
          "internalType": "address payable",
          "name": "seller",
          "type": "address"
        },
        {
          "internalType": "uint256",
          "name": "price",
          "type": "uint256"
        },
        {
          "internalType": "bool",
          "name": "isSold",
          "type": "bool"
        }
      ],
      "stateMutability": "view",
      "type": "function"
    },
    {
      "inputs": [
        {
          "internalType": "uint256",
          "name": "tokenId",
          "type": "uint256"
        }
      ],
      "name": "makeOffer",
      "outputs": [],
      "stateMutability": "payable",
      "type": "function"
    },
    {
      "inputs": [
        {
          "internalType": "uint256",
          "name": "",
          "type": "uint256"
        },
        {
          "internalType": "uint256",
          "name": "",
          "type": "uint256"
        }
      ],
      "name": "offers",
      "outputs": [
        {
          "internalType": "address",
          "name": "bidder",
          "type": "address"
        },
        {
          "internalType": "uint256",
          "name": "amount",
          "type": "uint256"
        },
        {
          "internalType": "bool",
          "name": "accepted",
          "type": "bool"
        }
      ],
      "stateMutability": "view",
      "type": "function"
    },
    {
      "inputs": [
        {
          "internalType": "uint256",
          "name": "tokenId",
          "type": "uint256"
        },
        {
          "internalType": "uint256",
          "name": "price",
          "type": "uint256"
        }
      ],
      "name": "putItemForSale",
      "outputs": [
        {
          "internalType": "uint256",
          "name": "",
          "type": "uint256"
        }
      ],
      "stateMutability": "nonpayable",
      "type": "function"
    },
    {
      "inputs": [],
      "name": "totalItemsForSale",
      "outputs": [
        {
          "internalType": "uint256",
          "name": "",
          "type": "uint256"
        }
      ],
      "stateMutability": "view",
      "type": "function"
    },
    {
      "inputs": [
        {
          "internalType": "uint256",
          "name": "tokenId",
          "type": "uint256"
        },
        {
          "internalType": "uint256",
          "name": "offerIndex",
          "type": "uint256"
        }
      ],
      "name": "withdrawOffer",
      "outputs": [],
      "stateMutability": "nonpayable",
      "type": "function"
    }
  ],
  "bytecode": "0x60806040523480156200001157600080fd5b5060405162001fee38038062001fee8339818101604052810190620000379190620000fc565b806000806101000a81548173ffffffffffffffffffffffffffffffffffffffff021916908373ffffffffffffffffffffffffffffffffffffffff160217905550506200012e565b600080fd5b600073ffffffffffffffffffffffffffffffffffffffff82169050919050565b6000620000b08262000083565b9050919050565b6000620000c482620000a3565b9050919050565b620000d681620000b7565b8114620000e257600080fd5b50565b600081519050620000f681620000cb565b92915050565b6000602082840312156200011557620001146200007e565b5b60006200012584828501620000e5565b91505092915050565b611eb0806200013e6000396000f3fe6080604052600436106100865760003560e01c80639c318c7b116100595780639c318c7b14610150578063c5a8d4bb1461018d578063e7fb74c7146101b6578063ec8120c9146101d2578063f4f35764146101fd57610086565b8063092d0afc1461008b5780634d03a9a5146100cc57806381257bd51461010b5780639a2f647414610134575b600080fd5b34801561009757600080fd5b506100b260048036038101906100ad9190611571565b61023a565b6040516100c3959493929190611609565b60405180910390f35b3480156100d857600080fd5b506100f360048036038101906100ee919061165c565b6102ad565b604051610102939291906116bd565b60405180910390f35b34801561011757600080fd5b50610132600480360381019061012d919061165c565b610321565b005b61014e60048036038101906101499190611571565b6106ce565b005b34801561015c57600080fd5b5061017760048036038101906101729190611571565b6108eb565b60405161018491906116f4565b60405180910390f35b34801561019957600080fd5b506101b460048036038101906101af919061165c565b61090b565b005b6101d060048036038101906101cb9190611571565b610b9a565b005b3480156101de57600080fd5b506101e7611147565b6040516101f4919061170f565b60405180910390f35b34801561020957600080fd5b50610224600480360381019061021f919061165c565b611154565b604051610231919061170f565b60405180910390f35b6001818154811061024a57600080fd5b90600052602060002090600502016000915090508060000154908060010154908060020160009054906101000a900473ffffffffffffffffffffffffffffffffffffffff16908060030154908060040160009054906101000a900460ff16905085565b600360205281600052604060002081815481106102c957600080fd5b9060005260206000209060030201600091509150508060000160009054906101000a900473ffffffffffffffffffffffffffffffffffffffff16908060010154908060020160009054906101000a900460ff16905083565b813373ffffffffffffffffffffffffffffffffffffffff1660008054906101000a900473ffffffffffffffffffffffffffffffffffffffff1673ffffffffffffffffffffffffffffffffffffffff16636352211e836040518263ffffffff1660e01b8152600401610392919061170f565b602060405180830381865afa1580156103af573d6000803e3d6000fd5b505050506040513d601f19601f820116820180604052508101906103d39190611756565b73ffffffffffffffffffffffffffffffffffffffff1614610429576040517f08c379a0000000000000000000000000000000000000000000000000000000008152600401610420906117e0565b60405180910390fd5b60036000848152602001908152602001600020805490508210610481576040517f08c379a00000000000000000000000000000000000000000000000000000000081526004016104789061184c565b60405180910390fd5b60006003600085815260200190815260200160002083815481106104a8576104a761186c565b5b906000526020600020906003020190508060020160009054906101000a900460ff161561050a576040517f08c379a0000000000000000000000000000000000000000000000000000000008152600401610501906118e7565b60405180910390fd5b60018160020160006101000a81548160ff02191690831515021790555060006002600086815260200190815260200160002060006101000a81548160ff02191690831515021790555060008054906101000a900473ffffffffffffffffffffffffffffffffffffffff1673ffffffffffffffffffffffffffffffffffffffff166342842e0e338360000160009054906101000a900473ffffffffffffffffffffffffffffffffffffffff16876040518463ffffffff1660e01b81526004016105d493929190611907565b600060405180830381600087803b1580156105ee57600080fd5b505af1158015610602573d6000803e3d6000fd5b505050503373ffffffffffffffffffffffffffffffffffffffff166108fc82600101549081150290604051600060405180830381858888f19350505050158015610650573d6000803e3d6000fd5b508060000160009054906101000a900473ffffffffffffffffffffffffffffffffffffffff1673ffffffffffffffffffffffffffffffffffffffff16847fea555ab99331ceac5051c58f17cc7b411b30241b0e28cb93a7d3a24c77a7a9a983600101546040516106c0919061170f565b60405180910390a350505050565b6002600082815260200190815260200160002060009054906101000a900460ff1661072e576040517f08c379a00000000000000000000000000000000000000000000000000000000081526004016107259061198a565b60405180910390fd5b60003411610771576040517f08c379a0000000000000000000000000000000000000000000000000000000008152600401610768906119f6565b60405180910390fd5b620f423f81036107b6576040517f08c379a00000000000000000000000000000000000000000000000000000000081526004016107ad90611a62565b60405180910390fd5b6003600082815260200190815260200160002060405180606001604052803373ffffffffffffffffffffffffffffffffffffffff16815260200134815260200160001515815250908060018154018082558091505060019003906000526020600020906003020160009091909190915060008201518160000160006101000a81548173ffffffffffffffffffffffffffffffffffffffff021916908373ffffffffffffffffffffffffffffffffffffffff1602179055506020820151816001015560408201518160020160006101000a81548160ff02191690831515021790555050503373ffffffffffffffffffffffffffffffffffffffff16817fbdf1e76c2ba2a5c85b93bf78678a4a3b06d63b18422612dac8d7d5249ed46714346040516108e0919061170f565b60405180910390a350565b60026020528060005260406000206000915054906101000a900460ff1681565b60036000838152602001908152602001600020805490508110610963576040517f08c379a000000000000000000000000000000000000000000000000000000000815260040161095a9061184c565b60405180910390fd5b600060036000848152602001908152602001600020828154811061098a5761098961186c565b5b906000526020600020906003020190503373ffffffffffffffffffffffffffffffffffffffff168160000160009054906101000a900473ffffffffffffffffffffffffffffffffffffffff1673ffffffffffffffffffffffffffffffffffffffff1614610a2c576040517f08c379a0000000000000000000000000000000000000000000000000000000008152600401610a2390611ace565b60405180910390fd5b8060020160009054906101000a900460ff1615610a7e576040517f08c379a0000000000000000000000000000000000000000000000000000000008152600401610a75906118e7565b60405180910390fd5b3373ffffffffffffffffffffffffffffffffffffffff166108fc82600101549081150290604051600060405180830381858888f19350505050158015610ac8573d6000803e3d6000fd5b50600360008481526020019081526020016000208281548110610aee57610aed61186c565b5b9060005260206000209060030201600080820160006101000a81549073ffffffffffffffffffffffffffffffffffffffff021916905560018201600090556002820160006101000a81549060ff021916905550503373ffffffffffffffffffffffffffffffffffffffff16837f60c7613a8b8ce872a461e88b0f376098063e67e4df6d0aa6a55790fe81acdb588360010154604051610b8d919061170f565b60405180910390a3505050565b8060018054905081108015610bd357508060018281548110610bbf57610bbe61186c565b5b906000526020600020906005020160000154145b610c12576040517f08c379a0000000000000000000000000000000000000000000000000000000008152600401610c0990611b3a565b60405180910390fd5b8160018181548110610c2757610c2661186c565b5b906000526020600020906005020160040160009054906101000a900460ff1615610c86576040517f08c379a0000000000000000000000000000000000000000000000000000000008152600401610c7d90611ba6565b60405180910390fd5b60018381548110610c9a57610c9961186c565b5b9060005260206000209060050201600101543073ffffffffffffffffffffffffffffffffffffffff1660008054906101000a900473ffffffffffffffffffffffffffffffffffffffff1673ffffffffffffffffffffffffffffffffffffffff1663081812fc836040518263ffffffff1660e01b8152600401610d1c919061170f565b602060405180830381865afa158015610d39573d6000803e3d6000fd5b505050506040513d601f19601f82011682018060405250810190610d5d9190611756565b73ffffffffffffffffffffffffffffffffffffffff1614610db3576040517f08c379a0000000000000000000000000000000000000000000000000000000008152600401610daa90611c12565b60405180910390fd5b60018481548110610dc757610dc661186c565b5b906000526020600020906005020160030154341015610e1b576040517f08c379a0000000000000000000000000000000000000000000000000000000008152600401610e1290611c7e565b60405180910390fd5b60018481548110610e2f57610e2e61186c565b5b906000526020600020906005020160020160009054906101000a900473ffffffffffffffffffffffffffffffffffffffff1673ffffffffffffffffffffffffffffffffffffffff163373ffffffffffffffffffffffffffffffffffffffff1603610ece576040517f08c379a0000000000000000000000000000000000000000000000000000000008152600401610ec590611cea565b60405180910390fd5b6001808581548110610ee357610ee261186c565b5b906000526020600020906005020160040160006101000a81548160ff02191690831515021790555060006002600060018781548110610f2557610f2461186c565b5b906000526020600020906005020160010154815260200190815260200160002060006101000a81548160ff02191690831515021790555060008054906101000a900473ffffffffffffffffffffffffffffffffffffffff1673ffffffffffffffffffffffffffffffffffffffff166342842e0e60018681548110610fac57610fab61186c565b5b906000526020600020906005020160020160009054906101000a900473ffffffffffffffffffffffffffffffffffffffff163360018881548110610ff357610ff261186c565b5b9060005260206000209060050201600101546040518463ffffffff1660e01b815260040161102393929190611d69565b600060405180830381600087803b15801561103d57600080fd5b505af1158015611051573d6000803e3d6000fd5b50505050600184815481106110695761106861186c565b5b906000526020600020906005020160020160009054906101000a900473ffffffffffffffffffffffffffffffffffffffff1673ffffffffffffffffffffffffffffffffffffffff166108fc349081150290604051600060405180830381858888f193505050501580156110e0573d6000803e3d6000fd5b507f8164c6f8917e418c49813e4586897c7067de5a886aa1bea980cd11fa57d482648433600187815481106111185761111761186c565b5b90600052602060002090600502016003015460405161113993929190611da0565b60405180910390a150505050565b6000600180549050905090565b6000823373ffffffffffffffffffffffffffffffffffffffff1660008054906101000a900473ffffffffffffffffffffffffffffffffffffffff1673ffffffffffffffffffffffffffffffffffffffff16636352211e836040518263ffffffff1660e01b81526004016111c7919061170f565b602060405180830381865afa1580156111e4573d6000803e3d6000fd5b505050506040513d601f19601f820116820180604052508101906112089190611756565b73ffffffffffffffffffffffffffffffffffffffff161461125e576040517f08c379a0000000000000000000000000000000000000000000000000000000008152600401611255906117e0565b60405180910390fd5b833073ffffffffffffffffffffffffffffffffffffffff1660008054906101000a900473ffffffffffffffffffffffffffffffffffffffff1673ffffffffffffffffffffffffffffffffffffffff1663081812fc836040518263ffffffff1660e01b81526004016112cf919061170f565b602060405180830381865afa1580156112ec573d6000803e3d6000fd5b505050506040513d601f19601f820116820180604052508101906113109190611756565b73ffffffffffffffffffffffffffffffffffffffff1614611366576040517f08c379a000000000000000000000000000000000000000000000000000000000815260040161135d90611c12565b60405180910390fd5b6002600086815260200190815260200160002060009054906101000a900460ff16156113c7576040517f08c379a00000000000000000000000000000000000000000000000000000000081526004016113be90611e23565b60405180910390fd5b6000600180549050905060016040518060a001604052808381526020018881526020013373ffffffffffffffffffffffffffffffffffffffff168152602001878152602001600015158152509080600181540180825580915050600190039060005260206000209060050201600090919091909150600082015181600001556020820151816001015560408201518160020160006101000a81548173ffffffffffffffffffffffffffffffffffffffff021916908373ffffffffffffffffffffffffffffffffffffffff1602179055506060820151816003015560808201518160040160006101000a81548160ff021916908315150217905550505060016002600088815260200190815260200160002060006101000a81548160ff0219169083151502179055507fafd8780f802588de8705083b0f6a33ac59b8d0228c80f9babe0549c1621c33f881878760405161152293929190611e43565b60405180910390a180935050505092915050565b600080fd5b6000819050919050565b61154e8161153b565b811461155957600080fd5b50565b60008135905061156b81611545565b92915050565b60006020828403121561158757611586611536565b5b60006115958482850161155c565b91505092915050565b6115a78161153b565b82525050565b600073ffffffffffffffffffffffffffffffffffffffff82169050919050565b60006115d8826115ad565b9050919050565b6115e8816115cd565b82525050565b60008115159050919050565b611603816115ee565b82525050565b600060a08201905061161e600083018861159e565b61162b602083018761159e565b61163860408301866115df565b611645606083018561159e565b61165260808301846115fa565b9695505050505050565b6000806040838503121561167357611672611536565b5b60006116818582860161155c565b92505060206116928582860161155c565b9150509250929050565b60006116a7826115ad565b9050919050565b6116b78161169c565b82525050565b60006060820190506116d260008301866116ae565b6116df602083018561159e565b6116ec60408301846115fa565b949350505050565b600060208201905061170960008301846115fa565b92915050565b6000602082019050611724600083018461159e565b92915050565b6117338161169c565b811461173e57600080fd5b50565b6000815190506117508161172a565b92915050565b60006020828403121561176c5761176b611536565b5b600061177a84828501611741565b91505092915050565b600082825260208201905092915050565b7f53656e64657220646f6573206e6f74206f776e20746865206974656d00000000600082015250565b60006117ca601c83611783565b91506117d582611794565b602082019050919050565b600060208201905081810360008301526117f9816117bd565b9050919050565b7f496e76616c6964206f6666657200000000000000000000000000000000000000600082015250565b6000611836600d83611783565b915061184182611800565b602082019050919050565b6000602082019050818103600083015261186581611829565b9050919050565b7f4e487b7100000000000000000000000000000000000000000000000000000000600052603260045260246000fd5b7f4f6666657220616c726561647920616363657074656400000000000000000000600082015250565b60006118d1601683611783565b91506118dc8261189b565b602082019050919050565b60006020820190508181036000830152611900816118c4565b9050919050565b600060608201905061191c60008301866116ae565b61192960208301856116ae565b611936604083018461159e565b949350505050565b7f4974656d206e6f7420666f722073616c65000000000000000000000000000000600082015250565b6000611974601183611783565b915061197f8261193e565b602082019050919050565b600060208201905081810360008301526119a381611967565b9050919050565b7f4f66666572206d7573742062652067726561746572207468616e203000000000600082015250565b60006119e0601c83611783565b91506119eb826119aa565b602082019050919050565b60006020820190508181036000830152611a0f816119d3565b9050919050565b7f5472696767657220746573742072657665727400000000000000000000000000600082015250565b6000611a4c601383611783565b9150611a5782611a16565b602082019050919050565b60006020820190508181036000830152611a7b81611a3f565b9050919050565b7f4f6e6c79206269646465722063616e2077697468647261770000000000000000600082015250565b6000611ab8601883611783565b9150611ac382611a82565b602082019050919050565b60006020820190508181036000830152611ae781611aab565b9050919050565b7f436f756c64206e6f742066696e64206974656d00000000000000000000000000600082015250565b6000611b24601383611783565b9150611b2f82611aee565b602082019050919050565b60006020820190508181036000830152611b5381611b17565b9050919050565b7f4974656d20697320616c726561647920736f6c64000000000000000000000000600082015250565b6000611b90601483611783565b9150611b9b82611b5a565b602082019050919050565b60006020820190508181036000830152611bbf81611b83565b9050919050565b7f4d61726b6574206973206e6f7420617070726f76656400000000000000000000600082015250565b6000611bfc601683611783565b9150611c0782611bc6565b602082019050919050565b60006020820190508181036000830152611c2b81611bef565b9050919050565b7f4e6f7420656e6f7567682066756e64732073656e740000000000000000000000600082015250565b6000611c68601583611783565b9150611c7382611c32565b602082019050919050565b60006020820190508181036000830152611c9781611c5b565b9050919050565b7f53656c6c65722063616e6e6f7420627579207468656972206f776e206974656d600082015250565b6000611cd4602083611783565b9150611cdf82611c9e565b602082019050919050565b60006020820190508181036000830152611d0381611cc7565b9050919050565b6000819050919050565b6000611d2f611d2a611d25846115ad565b611d0a565b6115ad565b9050919050565b6000611d4182611d14565b9050919050565b6000611d5382611d36565b9050919050565b611d6381611d48565b82525050565b6000606082019050611d7e6000830186611d5a565b611d8b60208301856116ae565b611d98604083018461159e565b949350505050565b6000606082019050611db5600083018661159e565b611dc260208301856116ae565b611dcf604083018461159e565b949350505050565b7f4974656d20697320616c726561647920757020666f722073616c650000000000600082015250565b6000611e0d601b83611783565b9150611e1882611dd7565b602082019050919050565b60006020820190508181036000830152611e3c81611e00565b9050919050565b6000606082019050611e58600083018661159e565b611e65602083018561159e565b611e72604083018461159e565b94935050505056fea26469706673582212203d08ead7244b3702b62fb8674c185f019d430b3d2b756b335ea61e318ff0c49b64736f6c63430008120033",
  "linkReferences": {},
  "deployedLinkReferences": {}
}