{
  "_format": "hh-sol-artifact-1",
  "contractName": "ArtToken",
  "sourceName": "contracts/ArtToken.sol",
  "abi": [
    {
      "inputs": [],
      "stateMutability": "nonpayable",
      "type": "constructor"
    },
    {
      "anonymous": false,
      "inputs": [
        {
          "indexed": true,
          "internalType": "address",
          "name": "owner",
          "type": "address"
        },
        {
          "indexed": true,
          "internalType": "address",
          "name": "approved",
          "type": "address"
        },
        {
          "indexed": true,
          "internalType": "uint256",
          "name": "tokenId",
          "type": "uint256"
        }
      ],
      "name": "Approval",
      "type": "event"
    },
    {
      "anonymous": false,
      "inputs": [
        {
          "indexed": true,
          "internalType": "address",
          "name": "owner",
          "type": "address"
        },
        {
          "indexed": true,
          "internalType": "address",
          "name": "operator",
          "type": "address"
        },
        {
          "indexed": false,
          "internalType": "bool",
          "name": "approved",
          "type": "bool"
        }
      ],
      "name": "ApprovalForAll",
      "type": "event"
    },
    {
      "anonymous": false,
      "inputs": [
        {
          "indexed": false,
          "internalType": "uint256",
          "name": "_fromTokenId",
          "type": "uint256"
        },
        {
          "indexed": false,
          "internalType": "uint256",
          "name": "_toTokenId",
          "type": "uint256"
        }
      ],
      "name": "BatchMetadataUpdate",
      "type": "event"
    },
    {
      "anonymous": false,
      "inputs": [
        {
          "indexed": false,
          "internalType": "uint256",
          "name": "_tokenId",
          "type": "uint256"
        }
      ],
      "name": "MetadataUpdate",
      "type": "event"
    },
    {
      "anonymous": false,
      "inputs": [
        {
          "indexed": true,
          "internalType": "address",
          "name": "from",
          "type": "address"
        },
        {
          "indexed": true,
          "internalType": "address",
          "name": "to",
          "type": "address"
        },
        {
          "indexed": true,
          "internalType": "uint256",
          "name": "tokenId",
          "type": "uint256"
        }
      ],
      "name": "Transfer",
      "type": "event"
    },
    {
      "inputs": [
        {
          "internalType": "uint256",
          "name": "",
          "type": "uint256"
        }
      ],
      "name": "Items",
      "outputs": [
        {
          "internalType": "uint256",
          "name": "id",
          "type": "uint256"
        },
        {
          "internalType": "address",
          "name": "creator",
          "type": "address"
        },
        {
          "internalType": "string",
          "name": "uri",
          "type": "string"
        }
      ],
      "stateMutability": "view",
      "type": "function"
    },
    {
      "inputs": [
        {
          "internalType": "address",
          "name": "to",
          "type": "address"
        },
        {
          "internalType": "uint256",
          "name": "tokenId",
          "type": "uint256"
        }
      ],
      "name": "approve",
      "outputs": [],
      "stateMutability": "nonpayable",
      "type": "function"
    },
    {
      "inputs": [
        {
          "internalType": "address",
          "name": "owner",
          "type": "address"
        }
      ],
      "name": "balanceOf",
      "outputs": [
        {
          "internalType": "uint256",
          "name": "",
          "type": "uint256"
        }
      ],
      "stateMutability": "view",
      "type": "function"
    },
    {
      "inputs": [
        {
          "internalType": "uint256",
          "name": "tokenId",
          "type": "uint256"
        }
      ],
      "name": "getApproved",
      "outputs": [
        {
          "internalType": "address",
          "name": "",
          "type": "address"
        }
      ],
      "stateMutability": "view",
      "type": "function"
    },
    {
      "inputs": [
        {
          "internalType": "address",
          "name": "owner",
          "type": "address"
        },
        {
          "internalType": "address",
          "name": "operator",
          "type": "address"
        }
      ],
      "name": "isApprovedForAll",
      "outputs": [
        {
          "internalType": "bool",
          "name": "",
          "type": "bool"
        }
      ],
      "stateMutability": "view",
      "type": "function"
    },
    {
      "inputs": [],
      "name": "marketplace",
      "outputs": [
        {
          "internalType": "address",
          "name": "",
          "type": "address"
        }
      ],
      "stateMutability": "view",
      "type": "function"
    },
    {
      "inputs": [
        {
          "internalType": "string",
          "name": "uri",
          "type": "string"
        }
      ],
      "name": "mint",
      "outputs": [
        {
          "internalType": "uint256",
          "name": "",
          "type": "uint256"
        }
      ],
      "stateMutability": "nonpayable",
      "type": "function"
    },
    {
      "inputs": [],
      "name": "name",
      "outputs": [
        {
          "internalType": "string",
          "name": "",
          "type": "string"
        }
      ],
      "stateMutability": "view",
      "type": "function"
    },
    {
      "inputs": [
        {
          "internalType": "uint256",
          "name": "tokenId",
          "type": "uint256"
        }
      ],
      "name": "ownerOf",
      "outputs": [
        {
          "internalType": "address",
          "name": "",
          "type": "address"
        }
      ],
      "stateMutability": "view",
      "type": "function"
    },
    {
      "inputs": [
        {
          "internalType": "address",
          "name": "from",
          "type": "address"
        },
        {
          "internalType": "address",
          "name": "to",
          "type": "address"
        },
        {
          "internalType": "uint256",
          "name": "tokenId",
          "type": "uint256"
        }
      ],
      "name": "safeTransferFrom",
      "outputs": [],
      "stateMutability": "nonpayable",
      "type": "function"
    },
    {
      "inputs": [
        {
          "internalType": "address",
          "name": "from",
          "type": "address"
        },
        {
          "internalType": "address",
          "name": "to",
          "type": "address"
        },
        {
          "internalType": "uint256",
          "name": "tokenId",
          "type": "uint256"
        },
        {
          "internalType": "bytes",
          "name": "data",
          "type": "bytes"
        }
      ],
      "name": "safeTransferFrom",
      "outputs": [],
      "stateMutability": "nonpayable",
      "type": "function"
    },
    {
      "inputs": [
        {
          "internalType": "address",
          "name": "operator",
          "type": "address"
        },
        {
          "internalType": "bool",
          "name": "approved",
          "type": "bool"
        }
      ],
      "name": "setApprovalForAll",
      "outputs": [],
      "stateMutability": "nonpayable",
      "type": "function"
    },
    {
      "inputs": [
        {
          "internalType": "address",
          "name": "market",
          "type": "address"
        }
      ],
      "name": "setMarketplace",
      "outputs": [],
      "stateMutability": "nonpayable",
      "type": "function"
    },
    {
      "inputs": [
        {
          "internalType": "bytes4",
          "name": "interfaceId",
          "type": "bytes4"
        }
      ],
      "name": "supportsInterface",
      "outputs": [
        {
          "internalType": "bool",
          "name": "",
          "type": "bool"
        }
      ],
      "stateMutability": "view",
      "type": "function"
    },
    {
      "inputs": [],
      "name": "symbol",
      "outputs": [
        {
          "internalType": "string",
          "name": "",
          "type": "string"
        }
      ],
      "stateMutability": "view",
      "type": "function"
    },
    {
      "inputs": [
        {
          "internalType": "uint256",
          "name": "index",
          "type": "uint256"
        }
      ],
      "name": "tokenByIndex",
      "outputs": [
        {
          "internalType": "uint256",
          "name": "",
          "type": "uint256"
        }
      ],
      "stateMutability": "view",
      "type": "function"
    },
    {
      "inputs": [
        {
          "internalType": "address",
          "name": "owner",
          "type": "address"
        },
        {
          "internalType": "uint256",
          "name": "index",
          "type": "uint256"
        }
      ],
      "name": "tokenOfOwnerByIndex",
      "outputs": [
        {
          "internalType": "uint256",
          "name": "",
          "type": "uint256"
        }
      ],
      "stateMutability": "view",
      "type": "function"
    },
    {
      "inputs": [
        {
          "internalType": "uint256",
          "name": "tokenId",
          "type": "uint256"
        }
      ],
      "name": "tokenURI",
      "outputs": [
        {
          "internalType": "string",
          "name": "",
          "type": "string"
        }
      ],
      "stateMutability": "view",
      "type": "function"
    },
    {
      "inputs": [],
      "name": "totalSupply",
      "outputs": [
        {
          "internalType": "uint256",
          "name": "",
          "type": "uint256"
        }
      ],
      "stateMutability": "view",
      "type": "function"
    },
    {
      "inputs": [
        {
          "internalType": "address",
          "name": "from",
          "type": "address"
        },
        {
          "internalType": "address",
          "name": "to",
          "type": "address"
        },
        {
          "internalType": "uint256",
          "name": "tokenId",
          "type": "uint256"
        }
      ],
      "name": "transferFrom",
      "outputs": [],
      "stateMutability": "nonpayable",
      "type": "function"
    }
  ],
  "bytecode": "0x60806040523480156200001157600080fd5b506040518060400160405280600881526020017f417274546f6b656e0000000000000000000000000000000000000000000000008152506040518060400160405280600481526020017f4152544b0000000000000000000000000000000000000000000000000000000081525081600090816200008f919062000324565b508060019081620000a1919062000324565b5050506200040b565b600081519050919050565b7f4e487b7100000000000000000000000000000000000000000000000000000000600052604160045260246000fd5b7f4e487b7100000000000000000000000000000000000000000000000000000000600052602260045260246000fd5b600060028204905060018216806200012c57607f821691505b602082108103620001425762000141620000e4565b5b50919050565b60008190508160005260206000209050919050565b60006020601f8301049050919050565b600082821b905092915050565b600060088302620001ac7fffffffffffffffffffffffffffffffffffffffffffffffffffffffffffffffff826200016d565b620001b886836200016d565b95508019841693508086168417925050509392505050565b6000819050919050565b6000819050919050565b600062000205620001ff620001f984620001d0565b620001da565b620001d0565b9050919050565b6000819050919050565b6200022183620001e4565b6200023962000230826200020c565b8484546200017a565b825550505050565b600090565b6200025062000241565b6200025d81848462000216565b505050565b5b8181101562000285576200027960008262000246565b60018101905062000263565b5050565b601f821115620002d4576200029e8162000148565b620002a9846200015d565b81016020851015620002b9578190505b620002d1620002c8856200015d565b83018262000262565b50505b505050565b600082821c905092915050565b6000620002f960001984600802620002d9565b1980831691505092915050565b6000620003148383620002e6565b9150826002028217905092915050565b6200032f82620000aa565b67ffffffffffffffff8111156200034b576200034a620000b5565b5b62000357825462000113565b6200036482828562000289565b600060209050601f8311600181146200039c576000841562000387578287015190505b62000393858262000306565b86555062000403565b601f198416620003ac8662000148565b60005b82811015620003d657848901518255600182019150602085019450602081019050620003af565b86831015620003f65784890151620003f2601f891682620002e6565b8355505b6001600288020188555050505b505050505050565b61384d806200041b6000396000f3fe608060405234801561001057600080fd5b506004361061012c5760003560e01c80636352211e116100ad578063abc8c7af11610071578063abc8c7af14610369578063b88d4fde14610387578063c87b56dd146103a3578063d85d3d27146103d3578063e985e9c5146104035761012c565b80636352211e146102b357806370a08231146102e357806373ad6c2d1461031357806395d89b411461032f578063a22cb4651461034d5761012c565b806318160ddd116100f457806318160ddd146101fd57806323b872dd1461021b5780632f745c591461023757806342842e0e146102675780634f6ccce7146102835761012c565b806301ffc9a71461013157806306fdde0314610161578063081812fc1461017f578063095ea7b3146101af57806317b47cc4146101cb575b600080fd5b61014b60048036038101906101469190612408565b610433565b6040516101589190612450565b60405180910390f35b610169610445565b60405161017691906124fb565b60405180910390f35b61019960048036038101906101949190612553565b6104d7565b6040516101a691906125c1565b60405180910390f35b6101c960048036038101906101c49190612608565b61051d565b005b6101e560048036038101906101e09190612553565b610634565b6040516101f493929190612657565b60405180910390f35b610205610706565b6040516102129190612695565b60405180910390f35b610235600480360381019061023091906126b0565b610713565b005b610251600480360381019061024c9190612608565b610773565b60405161025e9190612695565b60405180910390f35b610281600480360381019061027c91906126b0565b610818565b005b61029d60048036038101906102989190612553565b610838565b6040516102aa9190612695565b60405180910390f35b6102cd60048036038101906102c89190612553565b6108a9565b6040516102da91906125c1565b60405180910390f35b6102fd60048036038101906102f89190612703565b61092f565b60405161030a9190612695565b60405180910390f35b61032d60048036038101906103289190612703565b6109e6565b005b610337610a2a565b60405161034491906124fb565b60405180910390f35b6103676004803603810190610362919061275c565b610abc565b005b610371610ad2565b60405161037e91906125c1565b60405180910390f35b6103a1600480360381019061039c91906128d1565b610af8565b005b6103bd60048036038101906103b89190612553565b610b5a565b6040516103ca91906124fb565b60405180910390f35b6103ed60048036038101906103e891906129f5565b610bb4565b6040516103fa9190612695565b60405180910390f35b61041d60048036038101906104189190612a3e565b610cc5565b60405161042a9190612450565b60405180910390f35b600061043e82610d59565b9050919050565b60606000805461045490612aad565b80601f016020809104026020016040519081016040528092919081815260200182805461048090612aad565b80156104cd5780601f106104a2576101008083540402835291602001916104cd565b820191906000526020600020905b8154815290600101906020018083116104b057829003601f168201915b5050505050905090565b60006104e282610dba565b6004600083815260200190815260200160002060009054906101000a900473ffffffffffffffffffffffffffffffffffffffff169050919050565b6000610528826108a9565b90508073ffffffffffffffffffffffffffffffffffffffff168373ffffffffffffffffffffffffffffffffffffffff1603610598576040517f08c379a000000000000000000000000000000000000000000000000000000000815260040161058f90612b50565b60405180910390fd5b8073ffffffffffffffffffffffffffffffffffffffff166105b7610e05565b73ffffffffffffffffffffffffffffffffffffffff1614806105e657506105e5816105e0610e05565b610cc5565b5b610625576040517f08c379a000000000000000000000000000000000000000000000000000000000815260040161061c90612be2565b60405180910390fd5b61062f8383610e0d565b505050565b600d6020528060005260406000206000915090508060000154908060010160009054906101000a900473ffffffffffffffffffffffffffffffffffffffff169080600201805461068390612aad565b80601f01602080910402602001604051908101604052809291908181526020018280546106af90612aad565b80156106fc5780601f106106d1576101008083540402835291602001916106fc565b820191906000526020600020905b8154815290600101906020018083116106df57829003601f168201915b5050505050905083565b6000600880549050905090565b61072461071e610e05565b82610ec6565b610763576040517f08c379a000000000000000000000000000000000000000000000000000000000815260040161075a90612c74565b60405180910390fd5b61076e838383610f5b565b505050565b600061077e8361092f565b82106107bf576040517f08c379a00000000000000000000000000000000000000000000000000000000081526004016107b690612d06565b60405180910390fd5b600660008473ffffffffffffffffffffffffffffffffffffffff1673ffffffffffffffffffffffffffffffffffffffff168152602001908152602001600020600083815260200190815260200160002054905092915050565b61083383838360405180602001604052806000815250610af8565b505050565b6000610842610706565b8210610883576040517f08c379a000000000000000000000000000000000000000000000000000000000815260040161087a90612d98565b60405180910390fd5b6008828154811061089757610896612db8565b5b90600052602060002001549050919050565b6000806108b583611254565b9050600073ffffffffffffffffffffffffffffffffffffffff168173ffffffffffffffffffffffffffffffffffffffff1603610926576040517f08c379a000000000000000000000000000000000000000000000000000000000815260040161091d90612e33565b60405180910390fd5b80915050919050565b60008073ffffffffffffffffffffffffffffffffffffffff168273ffffffffffffffffffffffffffffffffffffffff160361099f576040517f08c379a000000000000000000000000000000000000000000000000000000000815260040161099690612ec5565b60405180910390fd5b600360008373ffffffffffffffffffffffffffffffffffffffff1673ffffffffffffffffffffffffffffffffffffffff168152602001908152602001600020549050919050565b80600c60006101000a81548173ffffffffffffffffffffffffffffffffffffffff021916908373ffffffffffffffffffffffffffffffffffffffff16021790555050565b606060018054610a3990612aad565b80601f0160208091040260200160405190810160405280929190818152602001828054610a6590612aad565b8015610ab25780601f10610a8757610100808354040283529160200191610ab2565b820191906000526020600020905b815481529060010190602001808311610a9557829003601f168201915b5050505050905090565b610ace610ac7610e05565b8383611291565b5050565b600c60009054906101000a900473ffffffffffffffffffffffffffffffffffffffff1681565b610b09610b03610e05565b83610ec6565b610b48576040517f08c379a0000000000000000000000000000000000000000000000000000000008152600401610b3f90612c74565b60405180910390fd5b610b54848484846113fd565b50505050565b6060610b6582611459565b610ba4576040517f08c379a0000000000000000000000000000000000000000000000000000000008152600401610b9b90612f57565b60405180910390fd5b610bad8261149a565b9050919050565b6000610bc0600b6115ac565b6000610bcc600b6115c2565b9050610bd833826115d0565b610be281846115ee565b610c0e600c60009054906101000a900473ffffffffffffffffffffffffffffffffffffffff168261051d565b60405180606001604052808281526020013373ffffffffffffffffffffffffffffffffffffffff16815260200184815250600d60008381526020019081526020016000206000820151816000015560208201518160010160006101000a81548173ffffffffffffffffffffffffffffffffffffffff021916908373ffffffffffffffffffffffffffffffffffffffff1602179055506040820151816002019081610cb89190613123565b5090505080915050919050565b6000600560008473ffffffffffffffffffffffffffffffffffffffff1673ffffffffffffffffffffffffffffffffffffffff16815260200190815260200160002060008373ffffffffffffffffffffffffffffffffffffffff1673ffffffffffffffffffffffffffffffffffffffff16815260200190815260200160002060009054906101000a900460ff16905092915050565b6000634906490660e01b7bffffffffffffffffffffffffffffffffffffffffffffffffffffffff1916827bffffffffffffffffffffffffffffffffffffffffffffffffffffffff19161480610db35750610db282611692565b5b9050919050565b610dc381611459565b610e02576040517f08c379a0000000000000000000000000000000000000000000000000000000008152600401610df990612e33565b60405180910390fd5b50565b600033905090565b816004600083815260200190815260200160002060006101000a81548173ffffffffffffffffffffffffffffffffffffffff021916908373ffffffffffffffffffffffffffffffffffffffff160217905550808273ffffffffffffffffffffffffffffffffffffffff16610e80836108a9565b73ffffffffffffffffffffffffffffffffffffffff167f8c5be1e5ebec7d5bd14f71427d1e84f3dd0314c0f7b2291e5b200ac8c7c3b92560405160405180910390a45050565b600080610ed2836108a9565b90508073ffffffffffffffffffffffffffffffffffffffff168473ffffffffffffffffffffffffffffffffffffffff161480610f145750610f138185610cc5565b5b80610f5257508373ffffffffffffffffffffffffffffffffffffffff16610f3a846104d7565b73ffffffffffffffffffffffffffffffffffffffff16145b91505092915050565b8273ffffffffffffffffffffffffffffffffffffffff16610f7b826108a9565b73ffffffffffffffffffffffffffffffffffffffff1614610fd1576040517f08c379a0000000000000000000000000000000000000000000000000000000008152600401610fc890613267565b60405180910390fd5b600073ffffffffffffffffffffffffffffffffffffffff168273ffffffffffffffffffffffffffffffffffffffff1603611040576040517f08c379a0000000000000000000000000000000000000000000000000000000008152600401611037906132f9565b60405180910390fd5b61104d838383600161170c565b8273ffffffffffffffffffffffffffffffffffffffff1661106d826108a9565b73ffffffffffffffffffffffffffffffffffffffff16146110c3576040517f08c379a00000000000000000000000000000000000000000000000000000000081526004016110ba90613267565b60405180910390fd5b6004600082815260200190815260200160002060006101000a81549073ffffffffffffffffffffffffffffffffffffffff02191690556001600360008573ffffffffffffffffffffffffffffffffffffffff1673ffffffffffffffffffffffffffffffffffffffff168152602001908152602001600020600082825403925050819055506001600360008473ffffffffffffffffffffffffffffffffffffffff1673ffffffffffffffffffffffffffffffffffffffff16815260200190815260200160002060008282540192505081905550816002600083815260200190815260200160002060006101000a81548173ffffffffffffffffffffffffffffffffffffffff021916908373ffffffffffffffffffffffffffffffffffffffff160217905550808273ffffffffffffffffffffffffffffffffffffffff168473ffffffffffffffffffffffffffffffffffffffff167fddf252ad1be2c89b69c2b068fc378daa952ba7f163c4a11628f55a4df523b3ef60405160405180910390a461124f838383600161171e565b505050565b60006002600083815260200190815260200160002060009054906101000a900473ffffffffffffffffffffffffffffffffffffffff169050919050565b8173ffffffffffffffffffffffffffffffffffffffff168373ffffffffffffffffffffffffffffffffffffffff16036112ff576040517f08c379a00000000000000000000000000000000000000000000000000000000081526004016112f690613365565b60405180910390fd5b80600560008573ffffffffffffffffffffffffffffffffffffffff1673ffffffffffffffffffffffffffffffffffffffff16815260200190815260200160002060008473ffffffffffffffffffffffffffffffffffffffff1673ffffffffffffffffffffffffffffffffffffffff16815260200190815260200160002060006101000a81548160ff0219169083151502179055508173ffffffffffffffffffffffffffffffffffffffff168373ffffffffffffffffffffffffffffffffffffffff167f17307eab39ab6107e8899845ad3d59bd9653f200f220920489ca2b5937696c31836040516113f09190612450565b60405180910390a3505050565b611408848484610f5b565b61141484848484611724565b611453576040517f08c379a000000000000000000000000000000000000000000000000000000000815260040161144a906133f7565b60405180910390fd5b50505050565b60008073ffffffffffffffffffffffffffffffffffffffff1661147b83611254565b73ffffffffffffffffffffffffffffffffffffffff1614159050919050565b60606114a582610dba565b6000600a600084815260200190815260200160002080546114c590612aad565b80601f01602080910402602001604051908101604052809291908181526020018280546114f190612aad565b801561153e5780601f106115135761010080835404028352916020019161153e565b820191906000526020600020905b81548152906001019060200180831161152157829003601f168201915b50505050509050600061154f6118ab565b905060008151036115645781925050506115a7565b600082511115611599578082604051602001611581929190613453565b604051602081830303815290604052925050506115a7565b6115a2846118c2565b925050505b919050565b6001816000016000828254019250508190555050565b600081600001549050919050565b6115ea82826040518060200160405280600081525061192a565b5050565b6115f782611459565b611636576040517f08c379a000000000000000000000000000000000000000000000000000000000815260040161162d906134e9565b60405180910390fd5b80600a600084815260200190815260200160002090816116569190613123565b507ff8e1a15aba9398e019f0b49df1a4fde98ee17ae345cb5f6b5e2c27f5033e8ce7826040516116869190612695565b60405180910390a15050565b60007f780e9d63000000000000000000000000000000000000000000000000000000007bffffffffffffffffffffffffffffffffffffffffffffffffffffffff1916827bffffffffffffffffffffffffffffffffffffffffffffffffffffffff19161480611705575061170482611985565b5b9050919050565b61171884848484611a67565b50505050565b50505050565b60006117458473ffffffffffffffffffffffffffffffffffffffff16611bc5565b1561189e578373ffffffffffffffffffffffffffffffffffffffff1663150b7a0261176e610e05565b8786866040518563ffffffff1660e01b8152600401611790949392919061355e565b6020604051808303816000875af19250505080156117cc57506040513d601f19601f820116820180604052508101906117c991906135bf565b60015b61184e573d80600081146117fc576040519150601f19603f3d011682016040523d82523d6000602084013e611801565b606091505b506000815103611846576040517f08c379a000000000000000000000000000000000000000000000000000000000815260040161183d906133f7565b60405180910390fd5b805181602001fd5b63150b7a0260e01b7bffffffffffffffffffffffffffffffffffffffffffffffffffffffff1916817bffffffffffffffffffffffffffffffffffffffffffffffffffffffff1916149150506118a3565b600190505b949350505050565b606060405180602001604052806000815250905090565b60606118cd82610dba565b60006118d76118ab565b905060008151116118f75760405180602001604052806000815250611922565b8061190184611be8565b604051602001611912929190613453565b6040516020818303038152906040525b915050919050565b6119348383611cb6565b6119416000848484611724565b611980576040517f08c379a0000000000000000000000000000000000000000000000000000000008152600401611977906133f7565b60405180910390fd5b505050565b60007f80ac58cd000000000000000000000000000000000000000000000000000000007bffffffffffffffffffffffffffffffffffffffffffffffffffffffff1916827bffffffffffffffffffffffffffffffffffffffffffffffffffffffff19161480611a5057507f5b5e139f000000000000000000000000000000000000000000000000000000007bffffffffffffffffffffffffffffffffffffffffffffffffffffffff1916827bffffffffffffffffffffffffffffffffffffffffffffffffffffffff1916145b80611a605750611a5f82611ed3565b5b9050919050565b611a7384848484611f3d565b6001811115611ab7576040517f08c379a0000000000000000000000000000000000000000000000000000000008152600401611aae9061365e565b60405180910390fd5b6000829050600073ffffffffffffffffffffffffffffffffffffffff168573ffffffffffffffffffffffffffffffffffffffff1603611afe57611af981611f43565b611b3d565b8373ffffffffffffffffffffffffffffffffffffffff168573ffffffffffffffffffffffffffffffffffffffff1614611b3c57611b3b8582611f8c565b5b5b600073ffffffffffffffffffffffffffffffffffffffff168473ffffffffffffffffffffffffffffffffffffffff1603611b7f57611b7a816120f9565b611bbe565b8473ffffffffffffffffffffffffffffffffffffffff168473ffffffffffffffffffffffffffffffffffffffff1614611bbd57611bbc84826121ca565b5b5b5050505050565b6000808273ffffffffffffffffffffffffffffffffffffffff163b119050919050565b606060006001611bf784612249565b01905060008167ffffffffffffffff811115611c1657611c156127a6565b5b6040519080825280601f01601f191660200182016040528015611c485781602001600182028036833780820191505090505b509050600082602001820190505b600115611cab578080600190039150507f3031323334353637383961626364656600000000000000000000000000000000600a86061a8153600a8581611c9f57611c9e61367e565b5b04945060008503611c56575b819350505050919050565b600073ffffffffffffffffffffffffffffffffffffffff168273ffffffffffffffffffffffffffffffffffffffff1603611d25576040517f08c379a0000000000000000000000000000000000000000000000000000000008152600401611d1c906136f9565b60405180910390fd5b611d2e81611459565b15611d6e576040517f08c379a0000000000000000000000000000000000000000000000000000000008152600401611d6590613765565b60405180910390fd5b611d7c60008383600161170c565b611d8581611459565b15611dc5576040517f08c379a0000000000000000000000000000000000000000000000000000000008152600401611dbc90613765565b60405180910390fd5b6001600360008473ffffffffffffffffffffffffffffffffffffffff1673ffffffffffffffffffffffffffffffffffffffff16815260200190815260200160002060008282540192505081905550816002600083815260200190815260200160002060006101000a81548173ffffffffffffffffffffffffffffffffffffffff021916908373ffffffffffffffffffffffffffffffffffffffff160217905550808273ffffffffffffffffffffffffffffffffffffffff16600073ffffffffffffffffffffffffffffffffffffffff167fddf252ad1be2c89b69c2b068fc378daa952ba7f163c4a11628f55a4df523b3ef60405160405180910390a4611ecf60008383600161171e565b5050565b60007f01ffc9a7000000000000000000000000000000000000000000000000000000007bffffffffffffffffffffffffffffffffffffffffffffffffffffffff1916827bffffffffffffffffffffffffffffffffffffffffffffffffffffffff1916149050919050565b50505050565b6008805490506009600083815260200190815260200160002081905550600881908060018154018082558091505060019003906000526020600020016000909190919091505550565b60006001611f998461092f565b611fa391906137b4565b9050600060076000848152602001908152602001600020549050818114612088576000600660008673ffffffffffffffffffffffffffffffffffffffff1673ffffffffffffffffffffffffffffffffffffffff168152602001908152602001600020600084815260200190815260200160002054905080600660008773ffffffffffffffffffffffffffffffffffffffff1673ffffffffffffffffffffffffffffffffffffffff168152602001908152602001600020600084815260200190815260200160002081905550816007600083815260200190815260200160002081905550505b6007600084815260200190815260200160002060009055600660008573ffffffffffffffffffffffffffffffffffffffff1673ffffffffffffffffffffffffffffffffffffffff16815260200190815260200160002060008381526020019081526020016000206000905550505050565b6000600160088054905061210d91906137b4565b905060006009600084815260200190815260200160002054905060006008838154811061213d5761213c612db8565b5b90600052602060002001549050806008838154811061215f5761215e612db8565b5b9060005260206000200181905550816009600083815260200190815260200160002081905550600960008581526020019081526020016000206000905560088054806121ae576121ad6137e8565b5b6001900381819060005260206000200160009055905550505050565b60006121d58361092f565b905081600660008573ffffffffffffffffffffffffffffffffffffffff1673ffffffffffffffffffffffffffffffffffffffff168152602001908152602001600020600083815260200190815260200160002081905550806007600084815260200190815260200160002081905550505050565b600080600090507a184f03e93ff9f4daa797ed6e38ed64bf6a1f01000000000000000083106122a7577a184f03e93ff9f4daa797ed6e38ed64bf6a1f010000000000000000838161229d5761229c61367e565b5b0492506040810190505b6d04ee2d6d415b85acef810000000083106122e4576d04ee2d6d415b85acef810000000083816122da576122d961367e565b5b0492506020810190505b662386f26fc10000831061231357662386f26fc1000083816123095761230861367e565b5b0492506010810190505b6305f5e100831061233c576305f5e10083816123325761233161367e565b5b0492506008810190505b61271083106123615761271083816123575761235661367e565b5b0492506004810190505b60648310612384576064838161237a5761237961367e565b5b0492506002810190505b600a8310612393576001810190505b80915050919050565b6000604051905090565b600080fd5b600080fd5b60007fffffffff0000000000000000000000000000000000000000000000000000000082169050919050565b6123e5816123b0565b81146123f057600080fd5b50565b600081359050612402816123dc565b92915050565b60006020828403121561241e5761241d6123a6565b5b600061242c848285016123f3565b91505092915050565b60008115159050919050565b61244a81612435565b82525050565b60006020820190506124656000830184612441565b92915050565b600081519050919050565b600082825260208201905092915050565b60005b838110156124a557808201518184015260208101905061248a565b60008484015250505050565b6000601f19601f8301169050919050565b60006124cd8261246b565b6124d78185612476565b93506124e7818560208601612487565b6124f0816124b1565b840191505092915050565b6000602082019050818103600083015261251581846124c2565b905092915050565b6000819050919050565b6125308161251d565b811461253b57600080fd5b50565b60008135905061254d81612527565b92915050565b600060208284031215612569576125686123a6565b5b60006125778482850161253e565b91505092915050565b600073ffffffffffffffffffffffffffffffffffffffff82169050919050565b60006125ab82612580565b9050919050565b6125bb816125a0565b82525050565b60006020820190506125d660008301846125b2565b92915050565b6125e5816125a0565b81146125f057600080fd5b50565b600081359050612602816125dc565b92915050565b6000806040838503121561261f5761261e6123a6565b5b600061262d858286016125f3565b925050602061263e8582860161253e565b9150509250929050565b6126518161251d565b82525050565b600060608201905061266c6000830186612648565b61267960208301856125b2565b818103604083015261268b81846124c2565b9050949350505050565b60006020820190506126aa6000830184612648565b92915050565b6000806000606084860312156126c9576126c86123a6565b5b60006126d7868287016125f3565b93505060206126e8868287016125f3565b92505060406126f98682870161253e565b9150509250925092565b600060208284031215612719576127186123a6565b5b6000612727848285016125f3565b91505092915050565b61273981612435565b811461274457600080fd5b50565b60008135905061275681612730565b92915050565b60008060408385031215612773576127726123a6565b5b6000612781858286016125f3565b925050602061279285828601612747565b9150509250929050565b600080fd5b600080fd5b7f4e487b7100000000000000000000000000000000000000000000000000000000600052604160045260246000fd5b6127de826124b1565b810181811067ffffffffffffffff821117156127fd576127fc6127a6565b5b80604052505050565b600061281061239c565b905061281c82826127d5565b919050565b600067ffffffffffffffff82111561283c5761283b6127a6565b5b612845826124b1565b9050602081019050919050565b82818337600083830152505050565b600061287461286f84612821565b612806565b9050828152602081018484840111156128905761288f6127a1565b5b61289b848285612852565b509392505050565b600082601f8301126128b8576128b761279c565b5b81356128c8848260208601612861565b91505092915050565b600080600080608085870312156128eb576128ea6123a6565b5b60006128f9878288016125f3565b945050602061290a878288016125f3565b935050604061291b8782880161253e565b925050606085013567ffffffffffffffff81111561293c5761293b6123ab565b5b612948878288016128a3565b91505092959194509250565b600067ffffffffffffffff82111561296f5761296e6127a6565b5b612978826124b1565b9050602081019050919050565b600061299861299384612954565b612806565b9050828152602081018484840111156129b4576129b36127a1565b5b6129bf848285612852565b509392505050565b600082601f8301126129dc576129db61279c565b5b81356129ec848260208601612985565b91505092915050565b600060208284031215612a0b57612a0a6123a6565b5b600082013567ffffffffffffffff811115612a2957612a286123ab565b5b612a35848285016129c7565b91505092915050565b60008060408385031215612a5557612a546123a6565b5b6000612a63858286016125f3565b9250506020612a74858286016125f3565b9150509250929050565b7f4e487b7100000000000000000000000000000000000000000000000000000000600052602260045260246000fd5b60006002820490506001821680612ac557607f821691505b602082108103612ad857612ad7612a7e565b5b50919050565b7f4552433732313a20617070726f76616c20746f2063757272656e74206f776e6560008201527f7200000000000000000000000000000000000000000000000000000000000000602082015250565b6000612b3a602183612476565b9150612b4582612ade565b604082019050919050565b60006020820190508181036000830152612b6981612b2d565b9050919050565b7f4552433732313a20617070726f76652063616c6c6572206973206e6f7420746f60008201527f6b656e206f776e6572206f7220617070726f76656420666f7220616c6c000000602082015250565b6000612bcc603d83612476565b9150612bd782612b70565b604082019050919050565b60006020820190508181036000830152612bfb81612bbf565b9050919050565b7f4552433732313a2063616c6c6572206973206e6f7420746f6b656e206f776e6560008201527f72206f7220617070726f76656400000000000000000000000000000000000000602082015250565b6000612c5e602d83612476565b9150612c6982612c02565b604082019050919050565b60006020820190508181036000830152612c8d81612c51565b9050919050565b7f455243373231456e756d657261626c653a206f776e657220696e646578206f7560008201527f74206f6620626f756e6473000000000000000000000000000000000000000000602082015250565b6000612cf0602b83612476565b9150612cfb82612c94565b604082019050919050565b60006020820190508181036000830152612d1f81612ce3565b9050919050565b7f455243373231456e756d657261626c653a20676c6f62616c20696e646578206f60008201527f7574206f6620626f756e64730000000000000000000000000000000000000000602082015250565b6000612d82602c83612476565b9150612d8d82612d26565b604082019050919050565b60006020820190508181036000830152612db181612d75565b9050919050565b7f4e487b7100000000000000000000000000000000000000000000000000000000600052603260045260246000fd5b7f4552433732313a20696e76616c696420746f6b656e2049440000000000000000600082015250565b6000612e1d601883612476565b9150612e2882612de7565b602082019050919050565b60006020820190508181036000830152612e4c81612e10565b9050919050565b7f4552433732313a2061646472657373207a65726f206973206e6f74206120766160008201527f6c6964206f776e65720000000000000000000000000000000000000000000000602082015250565b6000612eaf602983612476565b9150612eba82612e53565b604082019050919050565b60006020820190508181036000830152612ede81612ea2565b9050919050565b7f4552433732313a2055524920717565727920666f72206e6f6e6578697374656e60008201527f7420746f6b656e00000000000000000000000000000000000000000000000000602082015250565b6000612f41602783612476565b9150612f4c82612ee5565b604082019050919050565b60006020820190508181036000830152612f7081612f34565b9050919050565b60008190508160005260206000209050919050565b60006020601f8301049050919050565b600082821b905092915050565b600060088302612fd97fffffffffffffffffffffffffffffffffffffffffffffffffffffffffffffffff82612f9c565b612fe38683612f9c565b95508019841693508086168417925050509392505050565b6000819050919050565b600061302061301b6130168461251d565b612ffb565b61251d565b9050919050565b6000819050919050565b61303a83613005565b61304e61304682613027565b848454612fa9565b825550505050565b600090565b613063613056565b61306e818484613031565b505050565b5b818110156130925761308760008261305b565b600181019050613074565b5050565b601f8211156130d7576130a881612f77565b6130b184612f8c565b810160208510156130c0578190505b6130d46130cc85612f8c565b830182613073565b50505b505050565b600082821c905092915050565b60006130fa600019846008026130dc565b1980831691505092915050565b600061311383836130e9565b9150826002028217905092915050565b61312c8261246b565b67ffffffffffffffff811115613145576131446127a6565b5b61314f8254612aad565b61315a828285613096565b600060209050601f83116001811461318d576000841561317b578287015190505b6131858582613107565b8655506131ed565b601f19841661319b86612f77565b60005b828110156131c35784890151825560018201915060208501945060208101905061319e565b868310156131e057848901516131dc601f8916826130e9565b8355505b6001600288020188555050505b505050505050565b7f4552433732313a207472616e736665722066726f6d20696e636f72726563742060008201527f6f776e6572000000000000000000000000000000000000000000000000000000602082015250565b6000613251602583612476565b915061325c826131f5565b604082019050919050565b6000602082019050818103600083015261328081613244565b9050919050565b7f4552433732313a207472616e7366657220746f20746865207a65726f2061646460008201527f7265737300000000000000000000000000000000000000000000000000000000602082015250565b60006132e3602483612476565b91506132ee82613287565b604082019050919050565b60006020820190508181036000830152613312816132d6565b9050919050565b7f4552433732313a20617070726f766520746f2063616c6c657200000000000000600082015250565b600061334f601983612476565b915061335a82613319565b602082019050919050565b6000602082019050818103600083015261337e81613342565b9050919050565b7f4552433732313a207472616e7366657220746f206e6f6e20455243373231526560008201527f63656976657220696d706c656d656e7465720000000000000000000000000000602082015250565b60006133e1603283612476565b91506133ec82613385565b604082019050919050565b60006020820190508181036000830152613410816133d4565b9050919050565b600081905092915050565b600061342d8261246b565b6134378185613417565b9350613447818560208601612487565b80840191505092915050565b600061345f8285613422565b915061346b8284613422565b91508190509392505050565b7f45524337323155524953746f726167653a2055524920736574206f66206e6f6e60008201527f6578697374656e7420746f6b656e000000000000000000000000000000000000602082015250565b60006134d3602e83612476565b91506134de82613477565b604082019050919050565b60006020820190508181036000830152613502816134c6565b9050919050565b600081519050919050565b600082825260208201905092915050565b600061353082613509565b61353a8185613514565b935061354a818560208601612487565b613553816124b1565b840191505092915050565b600060808201905061357360008301876125b2565b61358060208301866125b2565b61358d6040830185612648565b818103606083015261359f8184613525565b905095945050505050565b6000815190506135b9816123dc565b92915050565b6000602082840312156135d5576135d46123a6565b5b60006135e3848285016135aa565b91505092915050565b7f455243373231456e756d657261626c653a20636f6e736563757469766520747260008201527f616e7366657273206e6f7420737570706f727465640000000000000000000000602082015250565b6000613648603583612476565b9150613653826135ec565b604082019050919050565b600060208201905081810360008301526136778161363b565b9050919050565b7f4e487b7100000000000000000000000000000000000000000000000000000000600052601260045260246000fd5b7f4552433732313a206d696e7420746f20746865207a65726f2061646472657373600082015250565b60006136e3602083612476565b91506136ee826136ad565b602082019050919050565b60006020820190508181036000830152613712816136d6565b9050919050565b7f4552433732313a20746f6b656e20616c7265616479206d696e74656400000000600082015250565b600061374f601c83612476565b915061375a82613719565b602082019050919050565b6000602082019050818103600083015261377e81613742565b9050919050565b7f4e487b7100000000000000000000000000000000000000000000000000000000600052601160045260246000fd5b60006137bf8261251d565b91506137ca8361251d565b92508282039050818111156137e2576137e1613785565b5b92915050565b7f4e487b7100000000000000000000000000000000000000000000000000000000600052603160045260246000fdfea2646970667358221220dfa64400bb3b7de3dbe2e63685ca9bbc1aed04e8dd6aaaa65869f52a45c012df64736f6c63430008120033",
  "linkReferences": {},
  "deployedLinkReferences": {}
}