{
  "contractName": "ArtMarketplace",
  "abi": [
    {
      "inputs": [
        {
          "internalType": "contract ArtToken",
          "name": "_token",
          "type": "address"
        }
      ],
      "stateMutability": "nonpayable",
      "type": "constructor"
    },
    {
      "anonymous": false,
      "inputs": [
        {
          "indexed": true,
          "internalType": "uint256",
          "name": "tokenId",
          "type": "uint256"
        },
        {
          "indexed": true,
          "internalType": "address",
          "name": "bidder",
          "type": "address"
        },
        {
          "indexed": false,
          "internalType": "uint256",
          "name": "amount",
          "type": "uint256"
        }
      ],
      "name": "OfferAccepted",
      "type": "event"
    },
    {
      "anonymous": false,
      "inputs": [
        {
          "indexed": true,
          "internalType": "uint256",
          "name": "tokenId",
          "type": "uint256"
        },
        {
          "indexed": true,
          "internalType": "address",
          "name": "bidder",
          "type": "address"
        },
        {
          "indexed": false,
          "internalType": "uint256",
          "name": "amount",
          "type": "uint256"
        }
      ],
      "name": "OfferMade",
      "type": "event"
    },
    {
      "anonymous": false,
      "inputs": [
        {
          "indexed": true,
          "internalType": "uint256",
          "name": "tokenId",
          "type": "uint256"
        },
        {
          "indexed": true,
          "internalType": "address",
          "name": "bidder",
          "type": "address"
        },
        {
          "indexed": false,
          "internalType": "uint256",
          "name": "amount",
          "type": "uint256"
        }
      ],
      "name": "OfferWithdrawn",
      "type": "event"
    },
    {
      "anonymous": false,
      "inputs": [
        {
          "indexed": false,
          "internalType": "uint256",
          "name": "id",
          "type": "uint256"
        },
        {
          "indexed": false,
          "internalType": "uint256",
          "name": "tokenId",
          "type": "uint256"
        },
        {
          "indexed": false,
          "internalType": "uint256",
          "name": "price",
          "type": "uint256"
        }
      ],
      "name": "itemAddedForSale",
      "type": "event"
    },
    {
      "anonymous": false,
      "inputs": [
        {
          "indexed": false,
          "internalType": "uint256",
          "name": "id",
          "type": "uint256"
        },
        {
          "indexed": false,
          "internalType": "address",
          "name": "buyer",
          "type": "address"
        },
        {
          "indexed": false,
          "internalType": "uint256",
          "name": "price",
          "type": "uint256"
        }
      ],
      "name": "itemSold",
      "type": "event"
    },
    {
      "inputs": [
        {
          "internalType": "uint256",
          "name": "",
          "type": "uint256"
        }
      ],
      "name": "activeItems",
      "outputs": [
        {
          "internalType": "bool",
          "name": "",
          "type": "bool"
        }
      ],
      "stateMutability": "view",
      "type": "function",
      "constant": true
    },
    {
      "inputs": [
        {
          "internalType": "uint256",
          "name": "",
          "type": "uint256"
        }
      ],
      "name": "itemsForSale",
      "outputs": [
        {
          "internalType": "uint256",
          "name": "id",
          "type": "uint256"
        },
        {
          "internalType": "uint256",
          "name": "tokenId",
          "type": "uint256"
        },
        {
          "internalType": "address payable",
          "name": "seller",
          "type": "address"
        },
        {
          "internalType": "uint256",
          "name": "price",
          "type": "uint256"
        },
        {
          "internalType": "bool",
          "name": "isSold",
          "type": "bool"
        }
      ],
      "stateMutability": "view",
      "type": "function",
      "constant": true
    },
    {
      "inputs": [
        {
          "internalType": "uint256",
          "name": "",
          "type": "uint256"
        },
        {
          "internalType": "uint256",
          "name": "",
          "type": "uint256"
        }
      ],
      "name": "offers",
      "outputs": [
        {
          "internalType": "address",
          "name": "bidder",
          "type": "address"
        },
        {
          "internalType": "uint256",
          "name": "amount",
          "type": "uint256"
        },
        {
          "internalType": "bool",
          "name": "accepted",
          "type": "bool"
        }
      ],
      "stateMutability": "view",
      "type": "function",
      "constant": true
    },
    {
      "inputs": [
        {
          "internalType": "uint256",
          "name": "tokenId",
          "type": "uint256"
        },
        {
          "internalType": "uint256",
          "name": "price",
          "type": "uint256"
        }
      ],
      "name": "putItemForSale",
      "outputs": [
        {
          "internalType": "uint256",
          "name": "",
          "type": "uint256"
        }
      ],
      "stateMutability": "nonpayable",
      "type": "function"
    },
    {
      "inputs": [
        {
          "internalType": "uint256",
          "name": "id",
          "type": "uint256"
        }
      ],
      "name": "buyItem",
      "outputs": [],
      "stateMutability": "payable",
      "type": "function",
      "payable": true
    },
    {
      "inputs": [
        {
          "internalType": "uint256",
          "name": "tokenId",
          "type": "uint256"
        }
      ],
      "name": "makeOffer",
      "outputs": [],
      "stateMutability": "payable",
      "type": "function",
      "payable": true
    },
    {
      "inputs": [
        {
          "internalType": "uint256",
          "name": "tokenId",
          "type": "uint256"
        },
        {
          "internalType": "uint256",
          "name": "offerIndex",
          "type": "uint256"
        }
      ],
      "name": "acceptOffer",
      "outputs": [],
      "stateMutability": "nonpayable",
      "type": "function"
    },
    {
      "inputs": [
        {
          "internalType": "uint256",
          "name": "tokenId",
          "type": "uint256"
        },
        {
          "internalType": "uint256",
          "name": "offerIndex",
          "type": "uint256"
        }
      ],
      "name": "withdrawOffer",
      "outputs": [],
      "stateMutability": "nonpayable",
      "type": "function"
    },
    {
      "inputs": [],
      "name": "totalItemsForSale",
      "outputs": [
        {
          "internalType": "uint256",
          "name": "",
          "type": "uint256"
        }
      ],
      "stateMutability": "view",
      "type": "function",
      "constant": true
    }
  ],
  "bytecode": "0x60806040523480156200001157600080fd5b50604051620021db380380620021db833981810160405281019062000037919062000095565b806000806101000a81548173ffffffffffffffffffffffffffffffffffffffff021916908373ffffffffffffffffffffffffffffffffffffffff1602179055505062000123565b6000815190506200008f8162000109565b92915050565b600060208284031215620000a857600080fd5b6000620000b8848285016200007e565b91505092915050565b6000620000ce82620000e9565b9050919050565b6000620000e282620000c1565b9050919050565b600073ffffffffffffffffffffffffffffffffffffffff82169050919050565b6200011481620000d5565b81146200012057600080fd5b50565b6120a880620001336000396000f3fe6080604052600436106100865760003560e01c80639c318c7b116100595780639c318c7b14610150578063c5a8d4bb1461018d578063e7fb74c7146101b6578063ec8120c9146101d2578063f4f35764146101fd57610086565b8063092d0afc1461008b5780634d03a9a5146100cc57806381257bd51461010b5780639a2f647414610134575b600080fd5b34801561009757600080fd5b506100b260048036038101906100ad91906117db565b61023a565b6040516100c3959493929190611d04565b60405180910390f35b3480156100d857600080fd5b506100f360048036038101906100ee9190611804565b6102ad565b60405161010293929190611ac0565b60405180910390f35b34801561011757600080fd5b50610132600480360381019061012d9190611804565b610321565b005b61014e600480360381019061014991906117db565b610703565b005b34801561015c57600080fd5b50610177600480360381019061017291906117db565b610921565b6040516101849190611af7565b60405180910390f35b34801561019957600080fd5b506101b460048036038101906101af9190611804565b610941565b005b6101d060048036038101906101cb91906117db565b610c1c565b005b3480156101de57600080fd5b506101e761137b565b6040516101f49190611cb2565b60405180910390f35b34801561020957600080fd5b50610224600480360381019061021f9190611804565b611388565b6040516102319190611cb2565b60405180910390f35b6001818154811061024a57600080fd5b90600052602060002090600502016000915090508060000154908060010154908060020160009054906101000a900473ffffffffffffffffffffffffffffffffffffffff16908060030154908060040160009054906101000a900460ff16905085565b600360205281600052604060002081815481106102c957600080fd5b9060005260206000209060030201600091509150508060000160009054906101000a900473ffffffffffffffffffffffffffffffffffffffff16908060010154908060020160009054906101000a900460ff16905083565b813373ffffffffffffffffffffffffffffffffffffffff1660008054906101000a900473ffffffffffffffffffffffffffffffffffffffff1673ffffffffffffffffffffffffffffffffffffffff16636352211e836040518263ffffffff1660e01b81526004016103929190611cb2565b60206040518083038186803b1580156103aa57600080fd5b505afa1580156103be573d6000803e3d6000fd5b505050506040513d601f19601f820116820180604052508101906103e291906117b2565b73ffffffffffffffffffffffffffffffffffffffff1614610438576040517f08c379a000000000000000000000000000000000000000000000000000000000815260040161042f90611b92565b60405180910390fd5b60036000848152602001908152602001600020805490508210610490576040517f08c379a000000000000000000000000000000000000000000000000000000000815260040161048790611b12565b60405180910390fd5b60006003600085815260200190815260200160002083815481106104dd577f4e487b7100000000000000000000000000000000000000000000000000000000600052603260045260246000fd5b906000526020600020906003020190508060020160009054906101000a900460ff161561053f576040517f08c379a000000000000000000000000000000000000000000000000000000000815260040161053690611bd2565b60405180910390fd5b60018160020160006101000a81548160ff02191690831515021790555060006002600086815260200190815260200160002060006101000a81548160ff02191690831515021790555060008054906101000a900473ffffffffffffffffffffffffffffffffffffffff1673ffffffffffffffffffffffffffffffffffffffff166342842e0e338360000160009054906101000a900473ffffffffffffffffffffffffffffffffffffffff16876040518463ffffffff1660e01b815260040161060993929190611a89565b600060405180830381600087803b15801561062357600080fd5b505af1158015610637573d6000803e3d6000fd5b505050503373ffffffffffffffffffffffffffffffffffffffff166108fc82600101549081150290604051600060405180830381858888f19350505050158015610685573d6000803e3d6000fd5b508060000160009054906101000a900473ffffffffffffffffffffffffffffffffffffffff1673ffffffffffffffffffffffffffffffffffffffff16847fea555ab99331ceac5051c58f17cc7b411b30241b0e28cb93a7d3a24c77a7a9a983600101546040516106f59190611cb2565b60405180910390a350505050565b6002600082815260200190815260200160002060009054906101000a900460ff16610763576040517f08c379a000000000000000000000000000000000000000000000000000000000815260040161075a90611c92565b60405180910390fd5b600034116107a6576040517f08c379a000000000000000000000000000000000000000000000000000000000815260040161079d90611b32565b60405180910390fd5b620f423f8114156107ec576040517f08c379a00000000000000000000000000000000000000000000000000000000081526004016107e390611bb2565b60405180910390fd5b6003600082815260200190815260200160002060405180606001604052803373ffffffffffffffffffffffffffffffffffffffff16815260200134815260200160001515815250908060018154018082558091505060019003906000526020600020906003020160009091909190915060008201518160000160006101000a81548173ffffffffffffffffffffffffffffffffffffffff021916908373ffffffffffffffffffffffffffffffffffffffff1602179055506020820151816001015560408201518160020160006101000a81548160ff02191690831515021790555050503373ffffffffffffffffffffffffffffffffffffffff16817fbdf1e76c2ba2a5c85b93bf78678a4a3b06d63b18422612dac8d7d5249ed46714346040516109169190611cb2565b60405180910390a350565b60026020528060005260406000206000915054906101000a900460ff1681565b60036000838152602001908152602001600020805490508110610999576040517f08c379a000000000000000000000000000000000000000000000000000000000815260040161099090611b12565b60405180910390fd5b60006003600084815260200190815260200160002082815481106109e6577f4e487b7100000000000000000000000000000000000000000000000000000000600052603260045260246000fd5b906000526020600020906003020190503373ffffffffffffffffffffffffffffffffffffffff168160000160009054906101000a900473ffffffffffffffffffffffffffffffffffffffff1673ffffffffffffffffffffffffffffffffffffffff1614610a88576040517f08c379a0000000000000000000000000000000000000000000000000000000008152600401610a7f90611c52565b60405180910390fd5b8060020160009054906101000a900460ff1615610ada576040517f08c379a0000000000000000000000000000000000000000000000000000000008152600401610ad190611bd2565b60405180910390fd5b3373ffffffffffffffffffffffffffffffffffffffff166108fc82600101549081150290604051600060405180830381858888f19350505050158015610b24573d6000803e3d6000fd5b50600360008481526020019081526020016000208281548110610b70577f4e487b7100000000000000000000000000000000000000000000000000000000600052603260045260246000fd5b9060005260206000209060030201600080820160006101000a81549073ffffffffffffffffffffffffffffffffffffffff021916905560018201600090556002820160006101000a81549060ff021916905550503373ffffffffffffffffffffffffffffffffffffffff16837f60c7613a8b8ce872a461e88b0f376098063e67e4df6d0aa6a55790fe81acdb588360010154604051610c0f9190611cb2565b60405180910390a3505050565b8060018054905081108015610c7b57508060018281548110610c67577f4e487b7100000000000000000000000000000000000000000000000000000000600052603260045260246000fd5b906000526020600020906005020160000154145b610cba576040517f08c379a0000000000000000000000000000000000000000000000000000000008152600401610cb190611bf2565b60405180910390fd5b8160018181548110610cf5577f4e487b7100000000000000000000000000000000000000000000000000000000600052603260045260246000fd5b906000526020600020906005020160040160009054906101000a900460ff1615610d54576040517f08c379a0000000000000000000000000000000000000000000000000000000008152600401610d4b90611c32565b60405180910390fd5b60018381548110610d8e577f4e487b7100000000000000000000000000000000000000000000000000000000600052603260045260246000fd5b9060005260206000209060050201600101543073ffffffffffffffffffffffffffffffffffffffff1660008054906101000a900473ffffffffffffffffffffffffffffffffffffffff1673ffffffffffffffffffffffffffffffffffffffff1663081812fc836040518263ffffffff1660e01b8152600401610e109190611cb2565b60206040518083038186803b158015610e2857600080fd5b505afa158015610e3c573d6000803e3d6000fd5b505050506040513d601f19601f82011682018060405250810190610e6091906117b2565b73ffffffffffffffffffffffffffffffffffffffff1614610eb6576040517f08c379a0000000000000000000000000000000000000000000000000000000008152600401610ead90611b72565b60405180910390fd5b60018481548110610ef0577f4e487b7100000000000000000000000000000000000000000000000000000000600052603260045260246000fd5b906000526020600020906005020160030154341015610f44576040517f08c379a0000000000000000000000000000000000000000000000000000000008152600401610f3b90611b52565b60405180910390fd5b60018481548110610f7e577f4e487b7100000000000000000000000000000000000000000000000000000000600052603260045260246000fd5b906000526020600020906005020160020160009054906101000a900473ffffffffffffffffffffffffffffffffffffffff1673ffffffffffffffffffffffffffffffffffffffff163373ffffffffffffffffffffffffffffffffffffffff16141561101e576040517f08c379a000000000000000000000000000000000000000000000000000000000815260040161101590611c72565b60405180910390fd5b6001808581548110611059577f4e487b7100000000000000000000000000000000000000000000000000000000600052603260045260246000fd5b906000526020600020906005020160040160006101000a81548160ff021916908315150217905550600060026000600187815481106110c1577f4e487b7100000000000000000000000000000000000000000000000000000000600052603260045260246000fd5b906000526020600020906005020160010154815260200190815260200160002060006101000a81548160ff02191690831515021790555060008054906101000a900473ffffffffffffffffffffffffffffffffffffffff1673ffffffffffffffffffffffffffffffffffffffff166342842e0e6001868154811061116e577f4e487b7100000000000000000000000000000000000000000000000000000000600052603260045260246000fd5b906000526020600020906005020160020160009054906101000a900473ffffffffffffffffffffffffffffffffffffffff1633600188815481106111db577f4e487b7100000000000000000000000000000000000000000000000000000000600052603260045260246000fd5b9060005260206000209060050201600101546040518463ffffffff1660e01b815260040161120b93929190611a52565b600060405180830381600087803b15801561122557600080fd5b505af1158015611239573d6000803e3d6000fd5b5050505060018481548110611277577f4e487b7100000000000000000000000000000000000000000000000000000000600052603260045260246000fd5b906000526020600020906005020160020160009054906101000a900473ffffffffffffffffffffffffffffffffffffffff1673ffffffffffffffffffffffffffffffffffffffff166108fc349081150290604051600060405180830381858888f193505050501580156112ee573d6000803e3d6000fd5b507f8164c6f8917e418c49813e4586897c7067de5a886aa1bea980cd11fa57d4826484336001878154811061134c577f4e487b7100000000000000000000000000000000000000000000000000000000600052603260045260246000fd5b90600052602060002090600502016003015460405161136d93929190611ccd565b60405180910390a150505050565b6000600180549050905090565b6000823373ffffffffffffffffffffffffffffffffffffffff1660008054906101000a900473ffffffffffffffffffffffffffffffffffffffff1673ffffffffffffffffffffffffffffffffffffffff16636352211e836040518263ffffffff1660e01b81526004016113fb9190611cb2565b60206040518083038186803b15801561141357600080fd5b505afa158015611427573d6000803e3d6000fd5b505050506040513d601f19601f8201168201806040525081019061144b91906117b2565b73ffffffffffffffffffffffffffffffffffffffff16146114a1576040517f08c379a000000000000000000000000000000000000000000000000000000000815260040161149890611b92565b60405180910390fd5b833073ffffffffffffffffffffffffffffffffffffffff1660008054906101000a900473ffffffffffffffffffffffffffffffffffffffff1673ffffffffffffffffffffffffffffffffffffffff1663081812fc836040518263ffffffff1660e01b81526004016115129190611cb2565b60206040518083038186803b15801561152a57600080fd5b505afa15801561153e573d6000803e3d6000fd5b505050506040513d601f19601f8201168201806040525081019061156291906117b2565b73ffffffffffffffffffffffffffffffffffffffff16146115b8576040517f08c379a00000000000000000000000000000000000000000000000000000000081526004016115af90611b72565b60405180910390fd5b6002600086815260200190815260200160002060009054906101000a900460ff1615611619576040517f08c379a000000000000000000000000000000000000000000000000000000000815260040161161090611c12565b60405180910390fd5b6000600180549050905060016040518060a001604052808381526020018881526020013373ffffffffffffffffffffffffffffffffffffffff168152602001878152602001600015158152509080600181540180825580915050600190039060005260206000209060050201600090919091909150600082015181600001556020820151816001015560408201518160020160006101000a81548173ffffffffffffffffffffffffffffffffffffffff021916908373ffffffffffffffffffffffffffffffffffffffff1602179055506060820151816003015560808201518160040160006101000a81548160ff021916908315150217905550505060016002600088815260200190815260200160002060006101000a81548160ff0219169083151502179055507fafd8780f802588de8705083b0f6a33ac59b8d0228c80f9babe0549c1621c33f881878760405161177493929190611d57565b60405180910390a180935050505092915050565b60008151905061179781612044565b92915050565b6000813590506117ac8161205b565b92915050565b6000602082840312156117c457600080fd5b60006117d284828501611788565b91505092915050565b6000602082840312156117ed57600080fd5b60006117fb8482850161179d565b91505092915050565b6000806040838503121561181757600080fd5b60006118258582860161179d565b92505060206118368582860161179d565b9150509250929050565b61184981611df9565b82525050565b61185881611db1565b82525050565b61186781611d9f565b82525050565b61187681611dc3565b82525050565b6000611889600d83611d8e565b915061189482611e2f565b602082019050919050565b60006118ac601c83611d8e565b91506118b782611e58565b602082019050919050565b60006118cf601583611d8e565b91506118da82611e81565b602082019050919050565b60006118f2601683611d8e565b91506118fd82611eaa565b602082019050919050565b6000611915601c83611d8e565b915061192082611ed3565b602082019050919050565b6000611938601383611d8e565b915061194382611efc565b602082019050919050565b600061195b601683611d8e565b915061196682611f25565b602082019050919050565b600061197e601383611d8e565b915061198982611f4e565b602082019050919050565b60006119a1601b83611d8e565b91506119ac82611f77565b602082019050919050565b60006119c4601483611d8e565b91506119cf82611fa0565b602082019050919050565b60006119e7601883611d8e565b91506119f282611fc9565b602082019050919050565b6000611a0a602083611d8e565b9150611a1582611ff2565b602082019050919050565b6000611a2d601183611d8e565b9150611a388261201b565b602082019050919050565b611a4c81611def565b82525050565b6000606082019050611a676000830186611840565b611a74602083018561185e565b611a816040830184611a43565b949350505050565b6000606082019050611a9e600083018661185e565b611aab602083018561185e565b611ab86040830184611a43565b949350505050565b6000606082019050611ad5600083018661185e565b611ae26020830185611a43565b611aef604083018461186d565b949350505050565b6000602082019050611b0c600083018461186d565b92915050565b60006020820190508181036000830152611b2b8161187c565b9050919050565b60006020820190508181036000830152611b4b8161189f565b9050919050565b60006020820190508181036000830152611b6b816118c2565b9050919050565b60006020820190508181036000830152611b8b816118e5565b9050919050565b60006020820190508181036000830152611bab81611908565b9050919050565b60006020820190508181036000830152611bcb8161192b565b9050919050565b60006020820190508181036000830152611beb8161194e565b9050919050565b60006020820190508181036000830152611c0b81611971565b9050919050565b60006020820190508181036000830152611c2b81611994565b9050919050565b60006020820190508181036000830152611c4b816119b7565b9050919050565b60006020820190508181036000830152611c6b816119da565b9050919050565b60006020820190508181036000830152611c8b816119fd565b9050919050565b60006020820190508181036000830152611cab81611a20565b9050919050565b6000602082019050611cc76000830184611a43565b92915050565b6000606082019050611ce26000830186611a43565b611cef602083018561185e565b611cfc6040830184611a43565b949350505050565b600060a082019050611d196000830188611a43565b611d266020830187611a43565b611d33604083018661184f565b611d406060830185611a43565b611d4d608083018461186d565b9695505050505050565b6000606082019050611d6c6000830186611a43565b611d796020830185611a43565b611d866040830184611a43565b949350505050565b600082825260208201905092915050565b6000611daa82611dcf565b9050919050565b6000611dbc82611dcf565b9050919050565b60008115159050919050565b600073ffffffffffffffffffffffffffffffffffffffff82169050919050565b6000819050919050565b6000611e0482611e0b565b9050919050565b6000611e1682611e1d565b9050919050565b6000611e2882611dcf565b9050919050565b7f496e76616c6964206f6666657200000000000000000000000000000000000000600082015250565b7f4f66666572206d7573742062652067726561746572207468616e203000000000600082015250565b7f4e6f7420656e6f7567682066756e64732073656e740000000000000000000000600082015250565b7f4d61726b6574206973206e6f7420617070726f76656400000000000000000000600082015250565b7f53656e64657220646f6573206e6f74206f776e20746865206974656d00000000600082015250565b7f5472696767657220746573742072657665727400000000000000000000000000600082015250565b7f4f6666657220616c726561647920616363657074656400000000000000000000600082015250565b7f436f756c64206e6f742066696e64206974656d00000000000000000000000000600082015250565b7f4974656d20697320616c726561647920757020666f722073616c650000000000600082015250565b7f4974656d20697320616c726561647920736f6c64000000000000000000000000600082015250565b7f4f6e6c79206269646465722063616e2077697468647261770000000000000000600082015250565b7f53656c6c65722063616e6e6f7420627579207468656972206f776e206974656d600082015250565b7f4974656d206e6f7420666f722073616c65000000000000000000000000000000600082015250565b61204d81611d9f565b811461205857600080fd5b50565b61206481611def565b811461206f57600080fd5b5056fea2646970667358221220edfb2bb7754197877328685507d141da992738cbd9b2081d163b425bdc0f77f564736f6c63430008040033",
  "immutableReferences": {},
  "source": "// SPDX-License-Identifier: MIT\npragma solidity ^0.8.0;\n\nimport \"./ArtToken.sol\";\n\ncontract ArtMarketplace {\n    ArtToken private token;\n\n    struct ItemForSale {\n        uint256 id;\n        uint256 tokenId;\n        address payable seller;\n        uint256 price;\n        bool isSold;\n    }\n\n    struct Offer {\n        address bidder;\n        uint256 amount;\n        bool accepted;\n    }\n\n    ItemForSale[] public itemsForSale;\n    mapping(uint256 => bool) public activeItems; // tokenId => active?\n    mapping(uint256 => Offer[]) public offers; // tokenId => offers[]\n\n    event itemAddedForSale(uint256 id, uint256 tokenId, uint256 price);\n    event itemSold(uint256 id, address buyer, uint256 price);\n    event OfferMade(uint256 indexed tokenId, address indexed bidder, uint256 amount);\n    event OfferAccepted(uint256 indexed tokenId, address indexed bidder, uint256 amount);\n    event OfferWithdrawn(uint256 indexed tokenId, address indexed bidder, uint256 amount);\n\n    constructor(ArtToken _token) {\n        token = _token;\n    }\n\n    modifier OnlyItemOwner(uint256 tokenId) {\n        require(token.ownerOf(tokenId) == msg.sender, \"Sender does not own the item\");\n        _;\n    }\n\n    modifier HasTransferApproval(uint256 tokenId) {\n        require(token.getApproved(tokenId) == address(this), \"Market is not approved\");\n        _;\n    }\n\n    modifier ItemExists(uint256 id) {\n        require(id < itemsForSale.length && itemsForSale[id].id == id, \"Could not find item\");\n        _;\n    }\n\n    modifier IsForSale(uint256 id) {\n        require(!itemsForSale[id].isSold, \"Item is already sold\");\n        _;\n    }\n\n    // List an item for sale\n    function putItemForSale(uint256 tokenId, uint256 price) \n        external \n        OnlyItemOwner(tokenId) \n        HasTransferApproval(tokenId) \n        returns (uint256) \n    {\n        require(!activeItems[tokenId], \"Item is already up for sale\");\n\n        uint256 newItemId = itemsForSale.length;\n        itemsForSale.push(ItemForSale({\n            id: newItemId,\n            tokenId: tokenId,\n            seller: payable(msg.sender),\n            price: price,\n            isSold: false\n        }));\n        activeItems[tokenId] = true;\n\n        emit itemAddedForSale(newItemId, tokenId, price);\n        return newItemId;\n    }\n\n    // Buy an item directly\n    function buyItem(uint256 id) \n        external \n        payable \n        ItemExists(id)\n        IsForSale(id)\n        HasTransferApproval(itemsForSale[id].tokenId)\n    {\n        require(msg.value >= itemsForSale[id].price, \"Not enough funds sent\");\n        require(msg.sender != itemsForSale[id].seller, \"Seller cannot buy their own item\");\n\n        itemsForSale[id].isSold = true;\n        activeItems[itemsForSale[id].tokenId] = false;\n\n        token.safeTransferFrom(itemsForSale[id].seller, msg.sender, itemsForSale[id].tokenId);\n        itemsForSale[id].seller.transfer(msg.value);\n\n        emit itemSold(id, msg.sender, itemsForSale[id].price);\n    }\n\n    // Make an offer on an item\nfunction makeOffer(uint256 tokenId) external payable {\n    require(activeItems[tokenId], \"Item not for sale\");\n    require(msg.value > 0, \"Offer must be greater than 0\");\n\n    // TEMP DEBUG\n    require(tokenId != 999999, \"Trigger test revert\");\n\n    offers[tokenId].push(Offer({\n        bidder: msg.sender,\n        amount: msg.value,\n        accepted: false\n    }));\n\n    emit OfferMade(tokenId, msg.sender, msg.value);\n}\n\n    // Accept an offer\n    function acceptOffer(uint256 tokenId, uint256 offerIndex) external OnlyItemOwner(tokenId) {\n        require(offerIndex < offers[tokenId].length, \"Invalid offer\");\n        Offer storage offer = offers[tokenId][offerIndex];\n        require(!offer.accepted, \"Offer already accepted\");\n\n        offer.accepted = true;\n        activeItems[tokenId] = false;\n\n        token.safeTransferFrom(msg.sender, offer.bidder, tokenId);\n        payable(msg.sender).transfer(offer.amount);\n\n        emit OfferAccepted(tokenId, offer.bidder, offer.amount);\n    }\n\n    // Withdraw an offer\n    function withdrawOffer(uint256 tokenId, uint256 offerIndex) external {\n        require(offerIndex < offers[tokenId].length, \"Invalid offer\");\n        Offer storage offer = offers[tokenId][offerIndex];\n        require(offer.bidder == msg.sender, \"Only bidder can withdraw\");\n        require(!offer.accepted, \"Offer already accepted\");\n\n        payable(msg.sender).transfer(offer.amount);\n        delete offers[tokenId][offerIndex];\n\n        emit OfferWithdrawn(tokenId, msg.sender, offer.amount);\n    }\n\n    // Get total items for sale\n    function totalItemsForSale() external view returns (uint256) {\n        return itemsForSale.length;\n    }\n}",
  "sourcePath": "/home/philix/Documents/GitHub/nft-marketplace/contracts/ArtMarketplace.sol",
  "compiler": {
    "name": "solc",
    "version": "0.8.4+commit.c7e474f2.Emscripten.clang"
  },
  "schemaVersion": "3.4.16",
  "updatedAt": "2025-03-19T19:16:37.642Z",
  "networkType": "ethereum",
  "devdoc": {
    "kind": "dev",
    "methods": {},
    "version": 1
  },
  "userdoc": {
    "kind": "user",
    "methods": {},
    "version": 1
  }
}