{
  "contractName": "ArtToken",
  "abi": [
    {
      "inputs": [],
      "stateMutability": "nonpayable",
      "type": "constructor"
    },
    {
      "anonymous": false,
      "inputs": [
        {
          "indexed": true,
          "internalType": "address",
          "name": "owner",
          "type": "address"
        },
        {
          "indexed": true,
          "internalType": "address",
          "name": "approved",
          "type": "address"
        },
        {
          "indexed": true,
          "internalType": "uint256",
          "name": "tokenId",
          "type": "uint256"
        }
      ],
      "name": "Approval",
      "type": "event"
    },
    {
      "anonymous": false,
      "inputs": [
        {
          "indexed": true,
          "internalType": "address",
          "name": "owner",
          "type": "address"
        },
        {
          "indexed": true,
          "internalType": "address",
          "name": "operator",
          "type": "address"
        },
        {
          "indexed": false,
          "internalType": "bool",
          "name": "approved",
          "type": "bool"
        }
      ],
      "name": "ApprovalForAll",
      "type": "event"
    },
    {
      "anonymous": false,
      "inputs": [
        {
          "indexed": false,
          "internalType": "uint256",
          "name": "_fromTokenId",
          "type": "uint256"
        },
        {
          "indexed": false,
          "internalType": "uint256",
          "name": "_toTokenId",
          "type": "uint256"
        }
      ],
      "name": "BatchMetadataUpdate",
      "type": "event"
    },
    {
      "anonymous": false,
      "inputs": [
        {
          "indexed": false,
          "internalType": "uint256",
          "name": "_tokenId",
          "type": "uint256"
        }
      ],
      "name": "MetadataUpdate",
      "type": "event"
    },
    {
      "anonymous": false,
      "inputs": [
        {
          "indexed": true,
          "internalType": "address",
          "name": "from",
          "type": "address"
        },
        {
          "indexed": true,
          "internalType": "address",
          "name": "to",
          "type": "address"
        },
        {
          "indexed": true,
          "internalType": "uint256",
          "name": "tokenId",
          "type": "uint256"
        }
      ],
      "name": "Transfer",
      "type": "event"
    },
    {
      "inputs": [
        {
          "internalType": "uint256",
          "name": "",
          "type": "uint256"
        }
      ],
      "name": "Items",
      "outputs": [
        {
          "internalType": "uint256",
          "name": "id",
          "type": "uint256"
        },
        {
          "internalType": "address",
          "name": "creator",
          "type": "address"
        },
        {
          "internalType": "string",
          "name": "uri",
          "type": "string"
        }
      ],
      "stateMutability": "view",
      "type": "function",
      "constant": true
    },
    {
      "inputs": [
        {
          "internalType": "address",
          "name": "to",
          "type": "address"
        },
        {
          "internalType": "uint256",
          "name": "tokenId",
          "type": "uint256"
        }
      ],
      "name": "approve",
      "outputs": [],
      "stateMutability": "nonpayable",
      "type": "function"
    },
    {
      "inputs": [
        {
          "internalType": "address",
          "name": "owner",
          "type": "address"
        }
      ],
      "name": "balanceOf",
      "outputs": [
        {
          "internalType": "uint256",
          "name": "",
          "type": "uint256"
        }
      ],
      "stateMutability": "view",
      "type": "function",
      "constant": true
    },
    {
      "inputs": [
        {
          "internalType": "uint256",
          "name": "tokenId",
          "type": "uint256"
        }
      ],
      "name": "getApproved",
      "outputs": [
        {
          "internalType": "address",
          "name": "",
          "type": "address"
        }
      ],
      "stateMutability": "view",
      "type": "function",
      "constant": true
    },
    {
      "inputs": [
        {
          "internalType": "address",
          "name": "owner",
          "type": "address"
        },
        {
          "internalType": "address",
          "name": "operator",
          "type": "address"
        }
      ],
      "name": "isApprovedForAll",
      "outputs": [
        {
          "internalType": "bool",
          "name": "",
          "type": "bool"
        }
      ],
      "stateMutability": "view",
      "type": "function",
      "constant": true
    },
    {
      "inputs": [],
      "name": "marketplace",
      "outputs": [
        {
          "internalType": "address",
          "name": "",
          "type": "address"
        }
      ],
      "stateMutability": "view",
      "type": "function",
      "constant": true
    },
    {
      "inputs": [],
      "name": "name",
      "outputs": [
        {
          "internalType": "string",
          "name": "",
          "type": "string"
        }
      ],
      "stateMutability": "view",
      "type": "function",
      "constant": true
    },
    {
      "inputs": [
        {
          "internalType": "uint256",
          "name": "tokenId",
          "type": "uint256"
        }
      ],
      "name": "ownerOf",
      "outputs": [
        {
          "internalType": "address",
          "name": "",
          "type": "address"
        }
      ],
      "stateMutability": "view",
      "type": "function",
      "constant": true
    },
    {
      "inputs": [
        {
          "internalType": "address",
          "name": "from",
          "type": "address"
        },
        {
          "internalType": "address",
          "name": "to",
          "type": "address"
        },
        {
          "internalType": "uint256",
          "name": "tokenId",
          "type": "uint256"
        }
      ],
      "name": "safeTransferFrom",
      "outputs": [],
      "stateMutability": "nonpayable",
      "type": "function"
    },
    {
      "inputs": [
        {
          "internalType": "address",
          "name": "from",
          "type": "address"
        },
        {
          "internalType": "address",
          "name": "to",
          "type": "address"
        },
        {
          "internalType": "uint256",
          "name": "tokenId",
          "type": "uint256"
        },
        {
          "internalType": "bytes",
          "name": "data",
          "type": "bytes"
        }
      ],
      "name": "safeTransferFrom",
      "outputs": [],
      "stateMutability": "nonpayable",
      "type": "function"
    },
    {
      "inputs": [
        {
          "internalType": "address",
          "name": "operator",
          "type": "address"
        },
        {
          "internalType": "bool",
          "name": "approved",
          "type": "bool"
        }
      ],
      "name": "setApprovalForAll",
      "outputs": [],
      "stateMutability": "nonpayable",
      "type": "function"
    },
    {
      "inputs": [],
      "name": "symbol",
      "outputs": [
        {
          "internalType": "string",
          "name": "",
          "type": "string"
        }
      ],
      "stateMutability": "view",
      "type": "function",
      "constant": true
    },
    {
      "inputs": [
        {
          "internalType": "uint256",
          "name": "index",
          "type": "uint256"
        }
      ],
      "name": "tokenByIndex",
      "outputs": [
        {
          "internalType": "uint256",
          "name": "",
          "type": "uint256"
        }
      ],
      "stateMutability": "view",
      "type": "function",
      "constant": true
    },
    {
      "inputs": [
        {
          "internalType": "address",
          "name": "owner",
          "type": "address"
        },
        {
          "internalType": "uint256",
          "name": "index",
          "type": "uint256"
        }
      ],
      "name": "tokenOfOwnerByIndex",
      "outputs": [
        {
          "internalType": "uint256",
          "name": "",
          "type": "uint256"
        }
      ],
      "stateMutability": "view",
      "type": "function",
      "constant": true
    },
    {
      "inputs": [],
      "name": "totalSupply",
      "outputs": [
        {
          "internalType": "uint256",
          "name": "",
          "type": "uint256"
        }
      ],
      "stateMutability": "view",
      "type": "function",
      "constant": true
    },
    {
      "inputs": [
        {
          "internalType": "address",
          "name": "from",
          "type": "address"
        },
        {
          "internalType": "address",
          "name": "to",
          "type": "address"
        },
        {
          "internalType": "uint256",
          "name": "tokenId",
          "type": "uint256"
        }
      ],
      "name": "transferFrom",
      "outputs": [],
      "stateMutability": "nonpayable",
      "type": "function"
    },
    {
      "inputs": [
        {
          "internalType": "string",
          "name": "uri",
          "type": "string"
        }
      ],
      "name": "mint",
      "outputs": [
        {
          "internalType": "uint256",
          "name": "",
          "type": "uint256"
        }
      ],
      "stateMutability": "nonpayable",
      "type": "function"
    },
    {
      "inputs": [
        {
          "internalType": "uint256",
          "name": "tokenId",
          "type": "uint256"
        }
      ],
      "name": "tokenURI",
      "outputs": [
        {
          "internalType": "string",
          "name": "",
          "type": "string"
        }
      ],
      "stateMutability": "view",
      "type": "function",
      "constant": true
    },
    {
      "inputs": [
        {
          "internalType": "address",
          "name": "market",
          "type": "address"
        }
      ],
      "name": "setMarketplace",
      "outputs": [],
      "stateMutability": "nonpayable",
      "type": "function"
    },
    {
      "inputs": [
        {
          "internalType": "bytes4",
          "name": "interfaceId",
          "type": "bytes4"
        }
      ],
      "name": "supportsInterface",
      "outputs": [
        {
          "internalType": "bool",
          "name": "",
          "type": "bool"
        }
      ],
      "stateMutability": "view",
      "type": "function",
      "constant": true
    }
  ],
  "bytecode": "0x60806040523480156200001157600080fd5b506040518060400160405280600881526020017f417274546f6b656e0000000000000000000000000000000000000000000000008152506040518060400160405280600481526020017f4152544b00000000000000000000000000000000000000000000000000000000815250816000908051906020019062000096929190620000b8565b508060019080519060200190620000af929190620000b8565b505050620001cd565b828054620000c69062000168565b90600052602060002090601f016020900481019282620000ea576000855562000136565b82601f106200010557805160ff191683800117855562000136565b8280016001018555821562000136579182015b828111156200013557825182559160200191906001019062000118565b5b50905062000145919062000149565b5090565b5b80821115620001645760008160009055506001016200014a565b5090565b600060028204905060018216806200018157607f821691505b602082108114156200019857620001976200019e565b5b50919050565b7f4e487b7100000000000000000000000000000000000000000000000000000000600052602260045260246000fd5b6136ba80620001dd6000396000f3fe608060405234801561001057600080fd5b506004361061012c5760003560e01c80636352211e116100ad578063abc8c7af11610071578063abc8c7af14610369578063b88d4fde14610387578063c87b56dd146103a3578063d85d3d27146103d3578063e985e9c5146104035761012c565b80636352211e146102b357806370a08231146102e357806373ad6c2d1461031357806395d89b411461032f578063a22cb4651461034d5761012c565b806318160ddd116100f457806318160ddd146101fd57806323b872dd1461021b5780632f745c591461023757806342842e0e146102675780634f6ccce7146102835761012c565b806301ffc9a71461013157806306fdde0314610161578063081812fc1461017f578063095ea7b3146101af57806317b47cc4146101cb575b600080fd5b61014b600480360381019061014691906128d0565b610433565b6040516101589190612cf4565b60405180910390f35b610169610445565b6040516101769190612d0f565b60405180910390f35b61019960048036038101906101949190612963565b6104d7565b6040516101a69190612c8d565b60405180910390f35b6101c960048036038101906101c49190612894565b61051d565b005b6101e560048036038101906101e09190612963565b610635565b6040516101f493929190612f2c565b60405180910390f35b610205610707565b6040516102129190612f11565b60405180910390f35b6102356004803603810190610230919061278e565b610714565b005b610251600480360381019061024c9190612894565b610774565b60405161025e9190612f11565b60405180910390f35b610281600480360381019061027c919061278e565b610819565b005b61029d60048036038101906102989190612963565b610839565b6040516102aa9190612f11565b60405180910390f35b6102cd60048036038101906102c89190612963565b6108d0565b6040516102da9190612c8d565b60405180910390f35b6102fd60048036038101906102f89190612729565b610957565b60405161030a9190612f11565b60405180910390f35b61032d60048036038101906103289190612729565b610a0f565b005b610337610a53565b6040516103449190612d0f565b60405180910390f35b61036760048036038101906103629190612858565b610ae5565b005b610371610afb565b60405161037e9190612c8d565b60405180910390f35b6103a1600480360381019061039c91906127dd565b610b21565b005b6103bd60048036038101906103b89190612963565b610b83565b6040516103ca9190612d0f565b60405180910390f35b6103ed60048036038101906103e89190612922565b610b95565b6040516103fa9190612f11565b60405180910390f35b61041d60048036038101906104189190612752565b610cad565b60405161042a9190612cf4565b60405180910390f35b600061043e82610d41565b9050919050565b6060600080546104549061311e565b80601f01602080910402602001604051908101604052809291908181526020018280546104809061311e565b80156104cd5780601f106104a2576101008083540402835291602001916104cd565b820191906000526020600020905b8154815290600101906020018083116104b057829003601f168201915b5050505050905090565b60006104e282610da2565b6004600083815260200190815260200160002060009054906101000a900473ffffffffffffffffffffffffffffffffffffffff169050919050565b6000610528826108d0565b90508073ffffffffffffffffffffffffffffffffffffffff168373ffffffffffffffffffffffffffffffffffffffff161415610599576040517f08c379a000000000000000000000000000000000000000000000000000000000815260040161059090612e91565b60405180910390fd5b8073ffffffffffffffffffffffffffffffffffffffff166105b8610ded565b73ffffffffffffffffffffffffffffffffffffffff1614806105e757506105e6816105e1610ded565b610cad565b5b610626576040517f08c379a000000000000000000000000000000000000000000000000000000000815260040161061d90612eb1565b60405180910390fd5b6106308383610df5565b505050565b600d6020528060005260406000206000915090508060000154908060010160009054906101000a900473ffffffffffffffffffffffffffffffffffffffff16908060020180546106849061311e565b80601f01602080910402602001604051908101604052809291908181526020018280546106b09061311e565b80156106fd5780601f106106d2576101008083540402835291602001916106fd565b820191906000526020600020905b8154815290600101906020018083116106e057829003601f168201915b5050505050905083565b6000600880549050905090565b61072561071f610ded565b82610eae565b610764576040517f08c379a000000000000000000000000000000000000000000000000000000000815260040161075b90612d31565b60405180910390fd5b61076f838383610f43565b505050565b600061077f83610957565b82106107c0576040517f08c379a00000000000000000000000000000000000000000000000000000000081526004016107b790612d51565b60405180910390fd5b600660008473ffffffffffffffffffffffffffffffffffffffff1673ffffffffffffffffffffffffffffffffffffffff168152602001908152602001600020600083815260200190815260200160002054905092915050565b61083483838360405180602001604052806000815250610b21565b505050565b6000610843610707565b8210610884576040517f08c379a000000000000000000000000000000000000000000000000000000000815260040161087b90612ed1565b60405180910390fd5b600882815481106108be577f4e487b7100000000000000000000000000000000000000000000000000000000600052603260045260246000fd5b90600052602060002001549050919050565b6000806108dc8361123d565b9050600073ffffffffffffffffffffffffffffffffffffffff168173ffffffffffffffffffffffffffffffffffffffff16141561094e576040517f08c379a000000000000000000000000000000000000000000000000000000000815260040161094590612e71565b60405180910390fd5b80915050919050565b60008073ffffffffffffffffffffffffffffffffffffffff168273ffffffffffffffffffffffffffffffffffffffff1614156109c8576040517f08c379a00000000000000000000000000000000000000000000000000000000081526004016109bf90612e11565b60405180910390fd5b600360008373ffffffffffffffffffffffffffffffffffffffff1673ffffffffffffffffffffffffffffffffffffffff168152602001908152602001600020549050919050565b80600c60006101000a81548173ffffffffffffffffffffffffffffffffffffffff021916908373ffffffffffffffffffffffffffffffffffffffff16021790555050565b606060018054610a629061311e565b80601f0160208091040260200160405190810160405280929190818152602001828054610a8e9061311e565b8015610adb5780601f10610ab057610100808354040283529160200191610adb565b820191906000526020600020905b815481529060010190602001808311610abe57829003601f168201915b5050505050905090565b610af7610af0610ded565b838361127a565b5050565b600c60009054906101000a900473ffffffffffffffffffffffffffffffffffffffff1681565b610b32610b2c610ded565b83610eae565b610b71576040517f08c379a0000000000000000000000000000000000000000000000000000000008152600401610b6890612d31565b60405180910390fd5b610b7d848484846113e7565b50505050565b6060610b8e82611443565b9050919050565b6000610ba1600b611556565b6000610bad600b61156c565b9050610bb9338261157a565b610bc38184611598565b610bef600c60009054906101000a900473ffffffffffffffffffffffffffffffffffffffff168261051d565b60405180606001604052808281526020013373ffffffffffffffffffffffffffffffffffffffff16815260200184815250600d60008381526020019081526020016000206000820151816000015560208201518160010160006101000a81548173ffffffffffffffffffffffffffffffffffffffff021916908373ffffffffffffffffffffffffffffffffffffffff1602179055506040820151816002019080519060200190610ca092919061254d565b5090505080915050919050565b6000600560008473ffffffffffffffffffffffffffffffffffffffff1673ffffffffffffffffffffffffffffffffffffffff16815260200190815260200160002060008373ffffffffffffffffffffffffffffffffffffffff1673ffffffffffffffffffffffffffffffffffffffff16815260200190815260200160002060009054906101000a900460ff16905092915050565b6000634906490660e01b7bffffffffffffffffffffffffffffffffffffffffffffffffffffffff1916827bffffffffffffffffffffffffffffffffffffffffffffffffffffffff19161480610d9b5750610d9a82611643565b5b9050919050565b610dab816116bd565b610dea576040517f08c379a0000000000000000000000000000000000000000000000000000000008152600401610de190612e71565b60405180910390fd5b50565b600033905090565b816004600083815260200190815260200160002060006101000a81548173ffffffffffffffffffffffffffffffffffffffff021916908373ffffffffffffffffffffffffffffffffffffffff160217905550808273ffffffffffffffffffffffffffffffffffffffff16610e68836108d0565b73ffffffffffffffffffffffffffffffffffffffff167f8c5be1e5ebec7d5bd14f71427d1e84f3dd0314c0f7b2291e5b200ac8c7c3b92560405160405180910390a45050565b600080610eba836108d0565b90508073ffffffffffffffffffffffffffffffffffffffff168473ffffffffffffffffffffffffffffffffffffffff161480610efc5750610efb8185610cad565b5b80610f3a57508373ffffffffffffffffffffffffffffffffffffffff16610f22846104d7565b73ffffffffffffffffffffffffffffffffffffffff16145b91505092915050565b8273ffffffffffffffffffffffffffffffffffffffff16610f63826108d0565b73ffffffffffffffffffffffffffffffffffffffff1614610fb9576040517f08c379a0000000000000000000000000000000000000000000000000000000008152600401610fb090612d91565b60405180910390fd5b600073ffffffffffffffffffffffffffffffffffffffff168273ffffffffffffffffffffffffffffffffffffffff161415611029576040517f08c379a000000000000000000000000000000000000000000000000000000000815260040161102090612dd1565b60405180910390fd5b61103683838360016116fe565b8273ffffffffffffffffffffffffffffffffffffffff16611056826108d0565b73ffffffffffffffffffffffffffffffffffffffff16146110ac576040517f08c379a00000000000000000000000000000000000000000000000000000000081526004016110a390612d91565b60405180910390fd5b6004600082815260200190815260200160002060006101000a81549073ffffffffffffffffffffffffffffffffffffffff02191690556001600360008573ffffffffffffffffffffffffffffffffffffffff1673ffffffffffffffffffffffffffffffffffffffff168152602001908152602001600020600082825403925050819055506001600360008473ffffffffffffffffffffffffffffffffffffffff1673ffffffffffffffffffffffffffffffffffffffff16815260200190815260200160002060008282540192505081905550816002600083815260200190815260200160002060006101000a81548173ffffffffffffffffffffffffffffffffffffffff021916908373ffffffffffffffffffffffffffffffffffffffff160217905550808273ffffffffffffffffffffffffffffffffffffffff168473ffffffffffffffffffffffffffffffffffffffff167fddf252ad1be2c89b69c2b068fc378daa952ba7f163c4a11628f55a4df523b3ef60405160405180910390a46112388383836001611710565b505050565b60006002600083815260200190815260200160002060009054906101000a900473ffffffffffffffffffffffffffffffffffffffff169050919050565b8173ffffffffffffffffffffffffffffffffffffffff168373ffffffffffffffffffffffffffffffffffffffff1614156112e9576040517f08c379a00000000000000000000000000000000000000000000000000000000081526004016112e090612df1565b60405180910390fd5b80600560008573ffffffffffffffffffffffffffffffffffffffff1673ffffffffffffffffffffffffffffffffffffffff16815260200190815260200160002060008473ffffffffffffffffffffffffffffffffffffffff1673ffffffffffffffffffffffffffffffffffffffff16815260200190815260200160002060006101000a81548160ff0219169083151502179055508173ffffffffffffffffffffffffffffffffffffffff168373ffffffffffffffffffffffffffffffffffffffff167f17307eab39ab6107e8899845ad3d59bd9653f200f220920489ca2b5937696c31836040516113da9190612cf4565b60405180910390a3505050565b6113f2848484610f43565b6113fe84848484611716565b61143d576040517f08c379a000000000000000000000000000000000000000000000000000000000815260040161143490612d71565b60405180910390fd5b50505050565b606061144e82610da2565b6000600a6000848152602001908152602001600020805461146e9061311e565b80601f016020809104026020016040519081016040528092919081815260200182805461149a9061311e565b80156114e75780601f106114bc576101008083540402835291602001916114e7565b820191906000526020600020905b8154815290600101906020018083116114ca57829003601f168201915b5050505050905060006114f86118ad565b905060008151141561150e578192505050611551565b60008251111561154357808260405160200161152b929190612c69565b60405160208183030381529060405292505050611551565b61154c846118c4565b925050505b919050565b6001816000016000828254019250508190555050565b600081600001549050919050565b61159482826040518060200160405280600081525061192c565b5050565b6115a1826116bd565b6115e0576040517f08c379a00000000000000000000000000000000000000000000000000000000081526004016115d790612e31565b60405180910390fd5b80600a6000848152602001908152602001600020908051906020019061160792919061254d565b507ff8e1a15aba9398e019f0b49df1a4fde98ee17ae345cb5f6b5e2c27f5033e8ce7826040516116379190612f11565b60405180910390a15050565b60007f780e9d63000000000000000000000000000000000000000000000000000000007bffffffffffffffffffffffffffffffffffffffffffffffffffffffff1916827bffffffffffffffffffffffffffffffffffffffffffffffffffffffff191614806116b657506116b582611987565b5b9050919050565b60008073ffffffffffffffffffffffffffffffffffffffff166116df8361123d565b73ffffffffffffffffffffffffffffffffffffffff1614159050919050565b61170a84848484611a69565b50505050565b50505050565b60006117378473ffffffffffffffffffffffffffffffffffffffff16611bc9565b156118a0578373ffffffffffffffffffffffffffffffffffffffff1663150b7a02611760610ded565b8786866040518563ffffffff1660e01b81526004016117829493929190612ca8565b602060405180830381600087803b15801561179c57600080fd5b505af19250505080156117cd57506040513d601f19601f820116820180604052508101906117ca91906128f9565b60015b611850573d80600081146117fd576040519150601f19603f3d011682016040523d82523d6000602084013e611802565b606091505b50600081511415611848576040517f08c379a000000000000000000000000000000000000000000000000000000000815260040161183f90612d71565b60405180910390fd5b805181602001fd5b63150b7a0260e01b7bffffffffffffffffffffffffffffffffffffffffffffffffffffffff1916817bffffffffffffffffffffffffffffffffffffffffffffffffffffffff1916149150506118a5565b600190505b949350505050565b606060405180602001604052806000815250905090565b60606118cf82610da2565b60006118d96118ad565b905060008151116118f95760405180602001604052806000815250611924565b8061190384611bec565b604051602001611914929190612c69565b6040516020818303038152906040525b915050919050565b6119368383611d10565b6119436000848484611716565b611982576040517f08c379a000000000000000000000000000000000000000000000000000000000815260040161197990612d71565b60405180910390fd5b505050565b60007f80ac58cd000000000000000000000000000000000000000000000000000000007bffffffffffffffffffffffffffffffffffffffffffffffffffffffff1916827bffffffffffffffffffffffffffffffffffffffffffffffffffffffff19161480611a5257507f5b5e139f000000000000000000000000000000000000000000000000000000007bffffffffffffffffffffffffffffffffffffffffffffffffffffffff1916827bffffffffffffffffffffffffffffffffffffffffffffffffffffffff1916145b80611a625750611a6182611f2e565b5b9050919050565b611a7584848484611f98565b6001811115611ab9576040517f08c379a0000000000000000000000000000000000000000000000000000000008152600401611ab090612ef1565b60405180910390fd5b6000829050600073ffffffffffffffffffffffffffffffffffffffff168573ffffffffffffffffffffffffffffffffffffffff161415611b0157611afc81611f9e565b611b40565b8373ffffffffffffffffffffffffffffffffffffffff168573ffffffffffffffffffffffffffffffffffffffff1614611b3f57611b3e8582611fe7565b5b5b600073ffffffffffffffffffffffffffffffffffffffff168473ffffffffffffffffffffffffffffffffffffffff161415611b8357611b7e81612154565b611bc2565b8473ffffffffffffffffffffffffffffffffffffffff168473ffffffffffffffffffffffffffffffffffffffff1614611bc157611bc08482612297565b5b5b5050505050565b6000808273ffffffffffffffffffffffffffffffffffffffff163b119050919050565b606060006001611bfb84612316565b01905060008167ffffffffffffffff811115611c40577f4e487b7100000000000000000000000000000000000000000000000000000000600052604160045260246000fd5b6040519080825280601f01601f191660200182016040528015611c725781602001600182028036833780820191505090505b509050600082602001820190505b600115611d05578080600190039150507f3031323334353637383961626364656600000000000000000000000000000000600a86061a8153600a8581611cef577f4e487b7100000000000000000000000000000000000000000000000000000000600052601260045260246000fd5b0494506000851415611d0057611d05565b611c80565b819350505050919050565b600073ffffffffffffffffffffffffffffffffffffffff168273ffffffffffffffffffffffffffffffffffffffff161415611d80576040517f08c379a0000000000000000000000000000000000000000000000000000000008152600401611d7790612e51565b60405180910390fd5b611d89816116bd565b15611dc9576040517f08c379a0000000000000000000000000000000000000000000000000000000008152600401611dc090612db1565b60405180910390fd5b611dd76000838360016116fe565b611de0816116bd565b15611e20576040517f08c379a0000000000000000000000000000000000000000000000000000000008152600401611e1790612db1565b60405180910390fd5b6001600360008473ffffffffffffffffffffffffffffffffffffffff1673ffffffffffffffffffffffffffffffffffffffff16815260200190815260200160002060008282540192505081905550816002600083815260200190815260200160002060006101000a81548173ffffffffffffffffffffffffffffffffffffffff021916908373ffffffffffffffffffffffffffffffffffffffff160217905550808273ffffffffffffffffffffffffffffffffffffffff16600073ffffffffffffffffffffffffffffffffffffffff167fddf252ad1be2c89b69c2b068fc378daa952ba7f163c4a11628f55a4df523b3ef60405160405180910390a4611f2a600083836001611710565b5050565b60007f01ffc9a7000000000000000000000000000000000000000000000000000000007bffffffffffffffffffffffffffffffffffffffffffffffffffffffff1916827bffffffffffffffffffffffffffffffffffffffffffffffffffffffff1916149050919050565b50505050565b6008805490506009600083815260200190815260200160002081905550600881908060018154018082558091505060019003906000526020600020016000909190919091505550565b60006001611ff484610957565b611ffe9190613034565b90506000600760008481526020019081526020016000205490508181146120e3576000600660008673ffffffffffffffffffffffffffffffffffffffff1673ffffffffffffffffffffffffffffffffffffffff168152602001908152602001600020600084815260200190815260200160002054905080600660008773ffffffffffffffffffffffffffffffffffffffff1673ffffffffffffffffffffffffffffffffffffffff168152602001908152602001600020600084815260200190815260200160002081905550816007600083815260200190815260200160002081905550505b6007600084815260200190815260200160002060009055600660008573ffffffffffffffffffffffffffffffffffffffff1673ffffffffffffffffffffffffffffffffffffffff16815260200190815260200160002060008381526020019081526020016000206000905550505050565b600060016008805490506121689190613034565b90506000600960008481526020019081526020016000205490506000600883815481106121be577f4e487b7100000000000000000000000000000000000000000000000000000000600052603260045260246000fd5b906000526020600020015490508060088381548110612206577f4e487b7100000000000000000000000000000000000000000000000000000000600052603260045260246000fd5b90600052602060002001819055508160096000838152602001908152602001600020819055506009600085815260200190815260200160002060009055600880548061227b577f4e487b7100000000000000000000000000000000000000000000000000000000600052603160045260246000fd5b6001900381819060005260206000200160009055905550505050565b60006122a283610957565b905081600660008573ffffffffffffffffffffffffffffffffffffffff1673ffffffffffffffffffffffffffffffffffffffff168152602001908152602001600020600083815260200190815260200160002081905550806007600084815260200190815260200160002081905550505050565b600080600090507a184f03e93ff9f4daa797ed6e38ed64bf6a1f010000000000000000831061239a577a184f03e93ff9f4daa797ed6e38ed64bf6a1f0100000000000000008381612390577f4e487b7100000000000000000000000000000000000000000000000000000000600052601260045260246000fd5b0492506040810190505b6d04ee2d6d415b85acef810000000083106123fd576d04ee2d6d415b85acef810000000083816123f3577f4e487b7100000000000000000000000000000000000000000000000000000000600052601260045260246000fd5b0492506020810190505b662386f26fc10000831061245257662386f26fc100008381612448577f4e487b7100000000000000000000000000000000000000000000000000000000600052601260045260246000fd5b0492506010810190505b6305f5e10083106124a1576305f5e1008381612497577f4e487b7100000000000000000000000000000000000000000000000000000000600052601260045260246000fd5b0492506008810190505b61271083106124ec5761271083816124e2577f4e487b7100000000000000000000000000000000000000000000000000000000600052601260045260246000fd5b0492506004810190505b60648310612535576064838161252b577f4e487b7100000000000000000000000000000000000000000000000000000000600052601260045260246000fd5b0492506002810190505b600a8310612544576001810190505b80915050919050565b8280546125599061311e565b90600052602060002090601f01602090048101928261257b57600085556125c2565b82601f1061259457805160ff19168380011785556125c2565b828001600101855582156125c2579182015b828111156125c15782518255916020019190600101906125a6565b5b5090506125cf91906125d3565b5090565b5b808211156125ec5760008160009055506001016125d4565b5090565b60006126036125fe84612f8f565b612f6a565b90508281526020810184848401111561261b57600080fd5b6126268482856130dc565b509392505050565b600061264161263c84612fc0565b612f6a565b90508281526020810184848401111561265957600080fd5b6126648482856130dc565b509392505050565b60008135905061267b81613628565b92915050565b6000813590506126908161363f565b92915050565b6000813590506126a581613656565b92915050565b6000815190506126ba81613656565b92915050565b600082601f8301126126d157600080fd5b81356126e18482602086016125f0565b91505092915050565b600082601f8301126126fb57600080fd5b813561270b84826020860161262e565b91505092915050565b6000813590506127238161366d565b92915050565b60006020828403121561273b57600080fd5b60006127498482850161266c565b91505092915050565b6000806040838503121561276557600080fd5b60006127738582860161266c565b92505060206127848582860161266c565b9150509250929050565b6000806000606084860312156127a357600080fd5b60006127b18682870161266c565b93505060206127c28682870161266c565b92505060406127d386828701612714565b9150509250925092565b600080600080608085870312156127f357600080fd5b60006128018782880161266c565b94505060206128128782880161266c565b935050604061282387828801612714565b925050606085013567ffffffffffffffff81111561284057600080fd5b61284c878288016126c0565b91505092959194509250565b6000806040838503121561286b57600080fd5b60006128798582860161266c565b925050602061288a85828601612681565b9150509250929050565b600080604083850312156128a757600080fd5b60006128b58582860161266c565b92505060206128c685828601612714565b9150509250929050565b6000602082840312156128e257600080fd5b60006128f084828501612696565b91505092915050565b60006020828403121561290b57600080fd5b6000612919848285016126ab565b91505092915050565b60006020828403121561293457600080fd5b600082013567ffffffffffffffff81111561294e57600080fd5b61295a848285016126ea565b91505092915050565b60006020828403121561297557600080fd5b600061298384828501612714565b91505092915050565b61299581613068565b82525050565b6129a48161307a565b82525050565b60006129b582612ff1565b6129bf8185613007565b93506129cf8185602086016130eb565b6129d88161320e565b840191505092915050565b60006129ee82612ffc565b6129f88185613018565b9350612a088185602086016130eb565b612a118161320e565b840191505092915050565b6000612a2782612ffc565b612a318185613029565b9350612a418185602086016130eb565b80840191505092915050565b6000612a5a602d83613018565b9150612a658261321f565b604082019050919050565b6000612a7d602b83613018565b9150612a888261326e565b604082019050919050565b6000612aa0603283613018565b9150612aab826132bd565b604082019050919050565b6000612ac3602583613018565b9150612ace8261330c565b604082019050919050565b6000612ae6601c83613018565b9150612af18261335b565b602082019050919050565b6000612b09602483613018565b9150612b1482613384565b604082019050919050565b6000612b2c601983613018565b9150612b37826133d3565b602082019050919050565b6000612b4f602983613018565b9150612b5a826133fc565b604082019050919050565b6000612b72602e83613018565b9150612b7d8261344b565b604082019050919050565b6000612b95602083613018565b9150612ba08261349a565b602082019050919050565b6000612bb8601883613018565b9150612bc3826134c3565b602082019050919050565b6000612bdb602183613018565b9150612be6826134ec565b604082019050919050565b6000612bfe603d83613018565b9150612c098261353b565b604082019050919050565b6000612c21602c83613018565b9150612c2c8261358a565b604082019050919050565b6000612c44603583613018565b9150612c4f826135d9565b604082019050919050565b612c63816130d2565b82525050565b6000612c758285612a1c565b9150612c818284612a1c565b91508190509392505050565b6000602082019050612ca2600083018461298c565b92915050565b6000608082019050612cbd600083018761298c565b612cca602083018661298c565b612cd76040830185612c5a565b8181036060830152612ce981846129aa565b905095945050505050565b6000602082019050612d09600083018461299b565b92915050565b60006020820190508181036000830152612d2981846129e3565b905092915050565b60006020820190508181036000830152612d4a81612a4d565b9050919050565b60006020820190508181036000830152612d6a81612a70565b9050919050565b60006020820190508181036000830152612d8a81612a93565b9050919050565b60006020820190508181036000830152612daa81612ab6565b9050919050565b60006020820190508181036000830152612dca81612ad9565b9050919050565b60006020820190508181036000830152612dea81612afc565b9050919050565b60006020820190508181036000830152612e0a81612b1f565b9050919050565b60006020820190508181036000830152612e2a81612b42565b9050919050565b60006020820190508181036000830152612e4a81612b65565b9050919050565b60006020820190508181036000830152612e6a81612b88565b9050919050565b60006020820190508181036000830152612e8a81612bab565b9050919050565b60006020820190508181036000830152612eaa81612bce565b9050919050565b60006020820190508181036000830152612eca81612bf1565b9050919050565b60006020820190508181036000830152612eea81612c14565b9050919050565b60006020820190508181036000830152612f0a81612c37565b9050919050565b6000602082019050612f266000830184612c5a565b92915050565b6000606082019050612f416000830186612c5a565b612f4e602083018561298c565b8181036040830152612f6081846129e3565b9050949350505050565b6000612f74612f85565b9050612f808282613150565b919050565b6000604051905090565b600067ffffffffffffffff821115612faa57612fa96131df565b5b612fb38261320e565b9050602081019050919050565b600067ffffffffffffffff821115612fdb57612fda6131df565b5b612fe48261320e565b9050602081019050919050565b600081519050919050565b600081519050919050565b600082825260208201905092915050565b600082825260208201905092915050565b600081905092915050565b600061303f826130d2565b915061304a836130d2565b92508282101561305d5761305c613181565b5b828203905092915050565b6000613073826130b2565b9050919050565b60008115159050919050565b60007fffffffff0000000000000000000000000000000000000000000000000000000082169050919050565b600073ffffffffffffffffffffffffffffffffffffffff82169050919050565b6000819050919050565b82818337600083830152505050565b60005b838110156131095780820151818401526020810190506130ee565b83811115613118576000848401525b50505050565b6000600282049050600182168061313657607f821691505b6020821081141561314a576131496131b0565b5b50919050565b6131598261320e565b810181811067ffffffffffffffff82111715613178576131776131df565b5b80604052505050565b7f4e487b7100000000000000000000000000000000000000000000000000000000600052601160045260246000fd5b7f4e487b7100000000000000000000000000000000000000000000000000000000600052602260045260246000fd5b7f4e487b7100000000000000000000000000000000000000000000000000000000600052604160045260246000fd5b6000601f19601f8301169050919050565b7f4552433732313a2063616c6c6572206973206e6f7420746f6b656e206f776e6560008201527f72206f7220617070726f76656400000000000000000000000000000000000000602082015250565b7f455243373231456e756d657261626c653a206f776e657220696e646578206f7560008201527f74206f6620626f756e6473000000000000000000000000000000000000000000602082015250565b7f4552433732313a207472616e7366657220746f206e6f6e20455243373231526560008201527f63656976657220696d706c656d656e7465720000000000000000000000000000602082015250565b7f4552433732313a207472616e736665722066726f6d20696e636f72726563742060008201527f6f776e6572000000000000000000000000000000000000000000000000000000602082015250565b7f4552433732313a20746f6b656e20616c7265616479206d696e74656400000000600082015250565b7f4552433732313a207472616e7366657220746f20746865207a65726f2061646460008201527f7265737300000000000000000000000000000000000000000000000000000000602082015250565b7f4552433732313a20617070726f766520746f2063616c6c657200000000000000600082015250565b7f4552433732313a2061646472657373207a65726f206973206e6f74206120766160008201527f6c6964206f776e65720000000000000000000000000000000000000000000000602082015250565b7f45524337323155524953746f726167653a2055524920736574206f66206e6f6e60008201527f6578697374656e7420746f6b656e000000000000000000000000000000000000602082015250565b7f4552433732313a206d696e7420746f20746865207a65726f2061646472657373600082015250565b7f4552433732313a20696e76616c696420746f6b656e2049440000000000000000600082015250565b7f4552433732313a20617070726f76616c20746f2063757272656e74206f776e6560008201527f7200000000000000000000000000000000000000000000000000000000000000602082015250565b7f4552433732313a20617070726f76652063616c6c6572206973206e6f7420746f60008201527f6b656e206f776e6572206f7220617070726f76656420666f7220616c6c000000602082015250565b7f455243373231456e756d657261626c653a20676c6f62616c20696e646578206f60008201527f7574206f6620626f756e64730000000000000000000000000000000000000000602082015250565b7f455243373231456e756d657261626c653a20636f6e736563757469766520747260008201527f616e7366657273206e6f7420737570706f727465640000000000000000000000602082015250565b61363181613068565b811461363c57600080fd5b50565b6136488161307a565b811461365357600080fd5b50565b61365f81613086565b811461366a57600080fd5b50565b613676816130d2565b811461368157600080fd5b5056fea264697066735822122072d7b1d0c8cd952343a85f55ae3eb055f4e1e67e01fdc315afa93b2d35d9bb5864736f6c63430008040033",
  "immutableReferences": {},
  "source": "// SPDX-License-Identifier: MIT\npragma solidity ^0.8.0;\n\nimport \"@openzeppelin/contracts/token/ERC721/extensions/ERC721Enumerable.sol\";\nimport \"@openzeppelin/contracts/token/ERC721/extensions/ERC721URIStorage.sol\";\nimport \"@openzeppelin/contracts/utils/Counters.sol\";\n\ncontract ArtToken is ERC721Enumerable, ERC721URIStorage {\n    using Counters for Counters.Counter;\n\n    Counters.Counter private _tokenIds;\n    address public marketplace;\n\n    struct Item {\n        uint256 id;\n        address creator;\n        string uri;\n    }\n\n    mapping(uint256 => Item) public Items;\n\n    constructor () ERC721(\"ArtToken\", \"ARTK\") {}\n\n    function mint(string memory uri) public returns (uint256) {\n        _tokenIds.increment();\n        uint256 newItemId = _tokenIds.current();\n        _safeMint(msg.sender, newItemId);\n        _setTokenURI(newItemId, uri); // crucial if you use ERC721URIStorage\n        approve(marketplace, newItemId);    \n\n        Items[newItemId] = Item({\n            id: newItemId,\n            creator: msg.sender,\n            uri: uri\n        });\n\n        return newItemId;\n    }\n\n    // Override tokenURI to use URIStorage logic\n    function tokenURI(uint256 tokenId) public view override(ERC721, ERC721URIStorage) returns (string memory) {\n        return super.tokenURI(tokenId);\n    }\n\n    // Required override due to multiple inheritance\n    function _burn(uint256 tokenId) internal override(ERC721, ERC721URIStorage) {\n        super._burn(tokenId);\n    }\n\n    function setMarketplace(address market) public {\n        marketplace = market;\n    }\n\n    function _beforeTokenTransfer(\n        address from,\n        address to,\n        uint256 tokenId,\n        uint256 batchSize\n    ) internal override(ERC721, ERC721Enumerable) {\n        super._beforeTokenTransfer(from, to, tokenId, batchSize);\n    }\n\n    function supportsInterface(bytes4 interfaceId)\n        public\n        view\n        override(ERC721Enumerable, ERC721URIStorage)\n        returns (bool)\n    {\n        return super.supportsInterface(interfaceId);\n    }\n}\n",
  "sourcePath": "/home/philix/Documents/GitHub/nft-marketplace/contracts/ArtToken.sol",
  "compiler": {
    "name": "solc",
    "version": "0.8.4+commit.c7e474f2.Emscripten.clang"
  },
  "schemaVersion": "3.4.16",
  "updatedAt": "2025-03-19T19:16:37.634Z",
  "networkType": "ethereum",
  "devdoc": {
    "kind": "dev",
    "methods": {
      "approve(address,uint256)": {
        "details": "See {IERC721-approve}."
      },
      "balanceOf(address)": {
        "details": "See {IERC721-balanceOf}."
      },
      "getApproved(uint256)": {
        "details": "See {IERC721-getApproved}."
      },
      "isApprovedForAll(address,address)": {
        "details": "See {IERC721-isApprovedForAll}."
      },
      "name()": {
        "details": "See {IERC721Metadata-name}."
      },
      "ownerOf(uint256)": {
        "details": "See {IERC721-ownerOf}."
      },
      "safeTransferFrom(address,address,uint256)": {
        "details": "See {IERC721-safeTransferFrom}."
      },
      "safeTransferFrom(address,address,uint256,bytes)": {
        "details": "See {IERC721-safeTransferFrom}."
      },
      "setApprovalForAll(address,bool)": {
        "details": "See {IERC721-setApprovalForAll}."
      },
      "symbol()": {
        "details": "See {IERC721Metadata-symbol}."
      },
      "tokenByIndex(uint256)": {
        "details": "See {IERC721Enumerable-tokenByIndex}."
      },
      "tokenOfOwnerByIndex(address,uint256)": {
        "details": "See {IERC721Enumerable-tokenOfOwnerByIndex}."
      },
      "totalSupply()": {
        "details": "See {IERC721Enumerable-totalSupply}."
      },
      "transferFrom(address,address,uint256)": {
        "details": "See {IERC721-transferFrom}."
      }
    },
    "version": 1
  },
  "userdoc": {
    "kind": "user",
    "methods": {},
    "version": 1
  }
}